:020000040800F2
:10000000000002209D2A0008392A00083B2A000827
:100010003D2A00083F2A0008412A0008000000008D
:10002000000000000000000000000000432A00085B
:10003000452A000800000000472A0008492A000855
:10004000ED2A0008ED2A0008ED2A0008ED2A000834
:10005000ED2A0008ED2A0008ED2A0008ED2A000824
:10006000ED2A0008ED2A0008ED2A0008ED2A000814
:10007000ED2A0008ED2A0008ED2A0008ED2A000804
:10008000ED2A0008ED2A0008ED2A0008ED2A0008F4
:10009000ED2A0008ED2A0008ED2A0008ED2A0008E4
:1000A000ED2A0008ED2A0008ED2A0008ED2A0008D4
:1000B000ED2A0008ED2A0008ED2A0008ED2A0008C4
:1000C000ED2A0008ED2A0008ED2A0008ED2A0008B4
:1000D000ED2A0008ED2A0008ED2A0008ED2A0008A4
:1000E000ED2A0008ED2A0008ED2A0008ED2A000894
:1000F000ED2A0008ED2A0008ED2A0008ED2A000884
:10010000ED2A0008ED2A0008ED2A0008ED2A000873
:10011000ED2A0008ED2A0008ED2A0008ED2A000863
:10012000ED2A0008ED2A0008ED2A0008ED2A000853
:10013000ED2A00080000000000000000ED2A000881
:10014000ED2A0008ED2A0008ED2A0008ED2A000833
:10015000ED2A0008ED2A0008ED2A0008ED2A000823
:10016000ED2A0008ED2A0008ED2A0008ED2A000813
:10017000ED2A0008ED2A0008000000000000000041
:08018000ED2A0008ED2A000839
:1001880010B5054C237833B9044B13B10448AFF3C9
:1001980000800123237010BD0C0000200000000027
:1001A800482B000808B5034B1BB103490348AFF3BC
:1001B800008008BD0000000010000020482B000847
:1001C80053B94AB9002908BF00281CBF4FF0FF31B6
:1001D8004FF0FF3000F072B9ADF1080C6DE904CEB4
:1001E80000F006F8DDF804E0DDE9022304B070470A
:1001F8002DE9F047089E04468846002B4BD18A42D9
:10020800154667D9B2FA82F24AB1C2F1200701FA5B
:1002180002F320FA07F7954047EA030894404FEAAB
:10022800154E230CB8FBFEF71FFA85FC0EFB17884A
:1002380043EA084307FB0CF1994209D9EB1807F187
:10024800FF3080F01B81994240F21881023F2B4415
:100258005B1AA4B2B3FBFEF00EFB103344EA03446E
:1002680000FB0CFCA44509D92C1900F1FF3380F0E0
:100278000781A44540F2048102382C4440EA074033
:10028800A4EB0C0400271EB1D4400023C6E90043A8
:100298003946BDE8F0878B4209D9002E00F0EB8083
:1002A8000027C6E9000138463946BDE8F087B3FAA9
:1002B80083F7002F47D18B4202D3824200F2FA80A3
:1002C800841A61EB030301209846002EE0D0C6E9AA
:1002D8000048DDE702B9FFDEB2FA82F2002A40F0F8
:1002E8008F80491B4FEA154E1FFA85F80127B1FB8D
:1002F800FEFC230C0EFB1C1143EA014308FB0CF126
:10030800994207D9EB180CF1FF3002D2994200F25A
:10031800CD808446591AA3B2B1FBFEF00EFB10142F
:1003280043EA044408FB00F8A04507D92C1900F15A
:10033800FF3302D2A04500F2B6801846A4EB0804A9
:1003480040EA0C409FE7C7F1200CBB4022FA0CFEA4
:100358004EEA030E01FA07F420FA0CF521FA0CF321
:100368004FEA1E482543B3FBF8F92C0C08FB193358
:100378001FFA8EFA44EA034309FB0AF49C4202FA84
:1003880007F200FA07F10BD91EEB030309F1FF305E
:1003980080F087809C4240F28480A9F1020973446E
:1003A8001B1BADB2B3FBF8F008FB103345EA03445E
:1003B80000FB0AFAA24508D91EEB040400F1FF333A
:1003C8006BD2A24569D90238744440EA0940A0FBBF
:1003D8000289A4EB0A044C45C2464B4654D351D07B
:1003E800002E69D0B1EB0A0564EB030404FA0CFC97
:1003F800FD40FC404CEA0505C6E90054002747E7E4
:10040800C2F1200320FA03F7954001FA02F021FA1D
:1004180003F34FEA154E3843010CB3FBFEF71FFAFE
:1004280085F80EFB173341EA034107FB08F38B42BB
:1004380004FA02F407D9691807F1FF3C2FD28B425E
:100448002DD9023F2944CB1A81B2B3FBFEF00EFB33
:10045800103341EA034100FB08F38B4207D96918BE
:1004680000F1FF3C17D28B4215D902382944C91A2A
:1004780040EA07473BE73746304609E70746E7E6DD
:100488001846FBE64145ABD2B8EB020A69EB0E020F
:1004980001381346A4E76046E9E7184695E767463A
:1004A800D1E781467CE702382C4447E7ACF1020CDF
:1004B8002B442FE7384608E73746E9E6704700BF80
:1004C80010F8012B11F8013B012A28BF9A42F7D0F6
:1004D800D01A704710B504460E4B18784FF47A734B
:1004E800B3FBF0F30C4A1068B0FBF3F000F00EFB1E
:1004F80068B90F2C01D901200AE0002221464FF0EB
:10050800FF3000F0CFFA034B5C60002000E00120D0
:1005180010BD00BF000000200800002008B50B4BEC
:100528001A6842F400721A601A6842F480621A600B
:100538001A6842F480721A60032000F0A1FA0020C1
:10054800FFF7C8FF02F09AF8002008BD003C0240FF
:10055800034A1168034B1B780B441360704700BFB4
:100568004C00002000000020014B1868704700BFB5
:100578004C0000204A4B5A6822F440325A605A68AC
:1005880041680A435A600268536823F480735360D1
:1005980002685368016943EA01235360026853689B
:1005A80023F0407353600268536881680B435360BB
:1005B8000268936823F40063936002689368C168D3
:1005C8000B439360826A374B9A424BD00268936818
:1005D80023F07063936002689368816A0B439360A9
:1005E8000268936823F04053936002689368C16A75
:1005F8000B4393600268936823F0020393600268D8
:100608009368017E43EA4103936090F82030002B01
:1006180033D10268536823F4006353600268D36AD5
:1006280023F47003D3620168CB6AC269013A43EAD2
:100638000253CB620268936823F4007393600268E4
:10064800936890F8301043EA4123936002689368F6
:1006580023F48063936002689368416943EA8123C5
:10066800936070470268936823F070639360026830
:10067800936823F040539360BCE70268536843F4DF
:10068800006353600268536823F460435360016851
:100698004B68426A013A43EA42334B60BEE700BF07
:1006A800002301400100000F38B310B50446036C65
:1006B80043B1236C13F0100F0BD00120002384F8F2
:1006C8003C3010BD01F0F6FF0023636484F83C3031
:1006D800EFE7236C23F4885323F0020343F002036B
:1006E80023642046FFF746FF00206064236C23F054
:1006F800030343F001032364E0E70120704700008F
:1007080082B00023019390F83C30012B7DD0012367
:1007180080F83C3003689A6812F0010F13D19A6888
:1007280042F001029A603E4B1B683E4AA2FB03233B
:100738009B0C03EB4303019302E0019B013B0193F4
:10074800019B002BF9D10268936813F0010F5ED06A
:10075800036C23F4E06323F0010343F48073036420
:10076800536813F4806F05D0036C23F4405343F4AB
:1007780080530364036C13F4805F1BD0436C23F035
:1007880006034364002380F83C306FF022031360B3
:10079800254B5B6813F01F0F27D10368234A934248
:1007A80019D002F58072934207D0214A93420BD0A8
:1007B80000202DE000234364E4E702F5007252684C
:1007C80012F01F0F07D0F0E702F58072526802F0AE
:1007D8001F020F2A1ED89A6812F0405F1CD19A682F
:1007E80042F080429A60002012E003680F4A934268
:1007F80001D000200CE09A6812F0405F0ED19A6890
:1008080042F080429A60002002E0022000E00020CE
:1008180002B070470020FBE70020F9E70020F7E767
:100828000800002083DE1B43002301400020014014
:100838000022014003689A6812F4806F03D09B6815
:1008480013F4807F1CD170B50D460446FFF78CFE6B
:10085800064623681A6812F0020F1AD1B5F1FF3F55
:10086800F7D025B1FFF780FE801BA842F1D9236C91
:1008780043F004032364002384F83C3003202DE074
:10088800036C43F020030364002380F83C3001200C
:1008980070476FF012021A60236C43F400732364EC
:1008A80023689A6812F0405F17D1227EBAB9DA6AD3
:1008B80012F4700F03D09B6813F4806F11D1236C6E
:1008C80023F480732364236C13F4805F0BD1236CAF
:1008D80043F001032364002000E0002070BD0020E5
:1008E800FCE70020FAE70020F8E70368D86C7047B7
:1008F80030B482B00023019390F83C30012B00F013
:10090800B780012380F83C300B68092B3ED9056875
:10091800EA689BB203EB43031E3B072404FA03F384
:1009280022EA0303EB600568EA688C680B8803EB2E
:1009380043031E3B04FA03F31343EB604B68062B97
:100948003AD805686A6B03EB8303053B1F2404FA56
:1009580003F322EA03036B6305686A6B4B6803EBD6
:100968008303053B0C8804FA03F313436B630268A3
:10097800404B9A4250D002683E4B9A4255D00023D1
:1009880080F83C30184602B030BC704705682A69C8
:100998009BB203EB4303072404FA03F322EA03039D
:1009A8002B6105682A698C680B8803EB430304FAFA
:1009B80003F313432B61C1E70C2B16D805682A6B88
:1009C80003EB8303233B1F2404FA03F322EA030304
:1009D8002B6305682A6B4B6803EB8303233B0C8866
:1009E80004FA03F313432B63C1E70568EA6A03EBD0
:1009F8008303413B1F2404FA03F322EA0303EB6257
:100A08000568EA6A4B6803EB8303413B0C8804FAE8
:100A180003F31343EB62AAE70B68122BABD1164A18
:100A2800536843F480035360A5E70B68103B012B20
:100A3800A5D8114A536843F4000353600B68102B80
:100A48009DD10E4B1B6802F1467202F52E3202F25E
:100A58008332A2FB03239B0C03EB83035A0001920E
:100A680002E0019B013B0193019B002BF9D186E732
:100A7800022088E7002001400023014008000020F0
:100A8800074AD36823F4E0631B041B0C000200F43C
:100A9800E060184340F0BF6040F40030D060704719
:100AA80000ED00E030B4174BDB68C3F30223C3F159
:100AB8000704042C28BF04241D1D062D18D9033B48
:100AC8004FF0FF3505FA04F421EA0401994005FACC
:100AD80003F322EA0303194300280BDB0901C9B217
:100AE80000F1604000F5614080F8001330BC7047A9
:100AF8000023E5E700F00F000901C9B2024B1954C1
:100B0800F4E700BF00ED00E014ED00E00138B0F1BB
:100B1800807F0AD2064B5860064AF02182F82310DB
:100B28000020986007221A6070470120704700BFB4
:100B380010E000E000ED00E070B110B50446037964
:100B480033B102232371002020610123237110BDDA
:100B5800437101F02BFEF4E7012070474379012B24
:100B680031D010B401234371022202710468226853
:100B78008B4013432360B1B902681168136803F00E
:100B8800380311F0040F01D0382B07D0012303716B
:100B98000023437118465DF8044B7047536843F0CF
:100BA80001035360F2E702681168136803F46013E5
:100BB80011F4802FEAD0B3F5601FE7D1536843F0F2
:100BC80002035360E2E7022070474379012B1FD0EC
:100BD80070B401254571022303710668336840F635
:100BE800FE74944023EA04040B6849680B4393405D
:100BF8002343336004682368C02101FA02F223EA20
:100C080002022260057100234371184670BC7047C8
:100C18000220704710B483B000240194006801904A
:100C280051B101990A4414320192019A13600020CB
:100C380003B05DF8044B704701990A4408320192E9
:100C4800F3E7000000230F2B00F2D780F0B482B046
:100C580039E0072200E00022B2403A430234674EEE
:100C680046F82420664A1468EA4302EA04064F68F4
:100C780017F4803F01D045EA0406614C2660646899
:100C880002EA04064F6817F4003F01D045EA04065B
:100C98005B4C6660A46802EA04064F6817F4801F7C
:100CA80001D045EA0406564CA660E46822404E6826
:100CB80016F4001F01D045EA0402514CE2600133EA
:100CC8000F2B00F2978001229A400C6804EA020573
:100CD800AA42F4D14C68022C01D0122C10D1DE08A3
:100CE800083650F826C003F00704A7000F24BC40BC
:100CF8002CEA040C0C69BC4044EA0C0440F8264079
:100D080004685F000326BE40F64306EA040C4C68FC
:100D180004F00304BC4044EA0C0404604C6804F189
:100D2800FF3CBCF1010F03D9112C01D0122C10D1BA
:100D3800846806EA040CCC68BC4044EA0C0484606D
:100D4800446824EA02024C68C4F300149C4014432B
:100D58004460C26816408A68BA403243C2604A6832
:100D680012F0805FABD000220192264A546C44F402
:100D780080445464526C02F480420192019A9C08A7
:100D8800A61C1E4A52F8267003F0030296000F2292
:100D9800B24027EA02071C4A90423FF45CAF02F5D2
:100DA800806290421AD002F58062904218D002F513
:100DB8008062904216D002F58062904214D002F50B
:100DC8008062904212D002F58062904210D002F503
:100DD800806290423FF43DAF08223DE701223BE7A5
:100DE800022239E7032237E7042235E7052233E7F1
:100DF800062231E702B0F0BC704770470038014066
:100E0800003C0140003802400000024012B90904C9
:100E18008161704781617047002800F0BF8070B51C
:100E2800044690F84130002B51D0022284F841202A
:100E38002168CB6923F47B6323F00F03CB6123681C
:100E48001A626369934263D0E368002B46D1102588
:100E5800A368202B00D86D00012000F071FE2369E3
:100E6800B3F5007F3CD0B0FBF5F000EB8000430009
:100E78006269B3FBF2F30533494AA2FB0323DB089B
:100E880003F001029B1A5B081202991EFD2941D842
:100E980021690A43216813430B622168CB6923F453
:100EA8007B6323F00F036268A0680243E068024393
:100EB800A0690243134343F40063CB61236A012B07
:100EC8002ED000206064012384F8413070BD80F882
:100ED8004030344B436301F09DFCA6E72025B7E77B
:100EE800E36853B1AD00B0FBF5F000EB80004300C0
:100EF8006269B3FBF2F30533BEE7ED00B0FBF5F032
:100F080000EB800043006269B3FBF2F30533B3E7FB
:100F18000022BAE7636C43F0100363640120D5E74D
:100F2800214B63632268214B9A421FD04FF0402225
:100F3800D36923F47B6323F00F03D36122681B4B2F
:100F48009A4215D04FF0402302221A622268174BAA
:100F58009A4210D04FF04021CA6992B26368B3F543
:100F6800007F0AD0C3B94FF4807608E0104ADFE763
:100F7800A3F58063E8E70E49EEE74FF48076A068B2
:100F8800E568238B2B439BB203439BB23343134344
:100F980043F40063CB6194E70026F0E70120704733
:100FA800CDCCCCCC2F1000083912000800380040F6
:100FB80000340040704708B5426A03681288DA6056
:100FC800436A02334362438D013B9BB24385438DA1
:100FD8009BB203B108BD0268536823F0A0035360B5
:100FE800012380F84130FFF7E5FFF3E7704708B5C4
:100FF8000368DA68C36A1A80C36A0233C362438E1D
:10100800013B9BB24386438E9BB203B108BD026885
:10101800536823F060035360012380F84130FFF7E1
:10102800E5FFF3E7704710B584B00446026893689B
:10103800039390F84130DBB2042B06D094F841308A
:10104800DBB2032B2CD004B010BD039B13F0010FAF
:1010580003D0536813F0400F1FD1039B13F0400FC8
:10106800ECD023685A6812F0200FE7D05A6822F0B3
:1010780060025A60002301932368DA6801929B6832
:101088000193019B012384F84130636C43F0020310
:1010980063642046FFF7C6FFD0E7FFF7A8FFDCE749
:1010A800039B13F0020F04D023685B6813F0800FD2
:1010B8001DD1039B13F0080FC5D023685A6812F09E
:1010C800200FC0D05A6822F0A0025A600023029371
:1010D80023689B680293029B012384F84130636C68
:1010E80043F0040363642046FFF79CFFABE7204608
:1010F800FFF761FFDDE7704708B5436A9A1C426253
:1011080002681B88D360438D013B9BB24385438DA6
:101118009BB23BB90268536823F0A0035360438E27
:101128009BB203B108BD012380F84130FFF7E3FF0C
:10113800F8E7000008B50268144B9A421BD04FF03C
:101148004023DA68C36A991CC1621A80438E013B46
:101158009BB24386438E9BB263B902680B4B9A429B
:101168000CD04FF04022536823F060035360438D46
:101178009BB22BB108BDA3F58063E2E7044AF2E70E
:10118800012380F84130FFF7B6FFF3E7003800404D
:101198000034004008B5436A9A1C42621A88016804
:1011A800124B994217D04FF04023DA60438D013B30
:1011B8009BB24385438D9BB263B902680B4B9A423D
:1011C8000CD04FF04022536823F0A0035360438EA5
:1011D8009BB22BB108BDA3F58063E6E7044AF2E7AA
:1011E800012380F84130FFF786FFF3E7003800401D
:1011F8000034004008B50368DA68C36A991CC16204
:101208001A80438E013B9BB24386438E9BB23BB907
:101218000268536823F060035360438D9BB203B1A7
:1012280008BD012380F84130FFF765FFF8E70000AB
:1012380010B586B0044603689A680592704A9342CE
:101248006FD04FF04022916804915B680393536814
:1012580002936368B3F5007F01D0002B70D1059B22
:1012680013F0020F03D0039B13F0800F5CD1049B93
:1012780013F0010F03D0029B13F0400F58D1049BC9
:1012880013F0400F24D0029B13F0200F20D02268C7
:101298005B4B9A4250D04FF04022536823F06003D2
:1012A80053602268536823F0A0035360002300931F
:1012B8002368DA6800929B680093009B012384F8F6
:1012C8004130636C43F0020363642046FFF7AAFED3
:1012D800059B13F0080F22D0039B13F0200F1ED09C
:1012E8002268536823F0A00353602268444B9A4253
:1012F80024D04FF04022536823F06003536000234A
:10130800019323689B680193019B012384F8413072
:10131800636C43F0040363642046FFF783FE06B062
:1013280010BDA2F580628EE72046FFF7E5FE9EE736
:101338002046FFF7FFFEA2E7324AAEE7314ADAE776
:10134800049B13F0020F03D0029B13F0800F4AD1C5
:10135800059B13F0010F03D0039B13F0400F46D1F8
:10136800059B13F0400F1CD0039B13F0200F18D0DF
:101378002268536823F0600353602268204B9A4226
:1013880039D04FF04022536823F0A0035360012363
:1013980084F84130636C43F0020363642046FFF72E
:1013A80041FE049B13F0080FB9D0029B13F0200FE5
:1013B800B5D02268124B9A421FD04FF04022536892
:1013C80023F0A00353602268536823F0600353603E
:1013D800012384F84130636C43F0040363642046BE
:1013E800FFF720FE9BE72046FFF7D4FEB0E7204634
:1013F800FFF700FFB4E7034AC5E7024ADFE700BF8B
:101408000038004000340040002800F0BB8170B56F
:1014180082B00446036813F0010F3BD0A74B9B68CA
:1014280003F00C03042B2CD0A44B9B6803F00C0393
:10143800082B21D06368B3F5803F4FD0B3F5A02FB8
:1014480052D09E4B1A6822F480321A601A6822F42D
:1014580080221A606368002B50D0FFF785F8054694
:10146800964B1B6813F4003F14D1FFF77DF8401B1F
:101478006428F5D903208AE1904B5B6813F4800F48
:10148800D8D08E4B1B6813F4003F03D06368002B41
:1014980000F07A81236813F0020F55D0874B9B68C0
:1014A80013F00C0F3ED0854B9B6803F00C03082B00
:1014B80033D0E368002B68D0814B01221A60FFF714
:1014C80053F805467D4B1B6813F0020F54D1FFF704
:1014D8004BF8401B0228F5D9032058E1774A1368D6
:1014E80043F480331360B5E7744B1A6842F48022E2
:1014F8001A601A6842F480321A60ABE7FFF734F8D2
:1015080005466E4B1B6813F4003FC3D0FFF72CF859
:10151800401B6428F5D9032039E1684B5B6813F454
:10152800800FC6D1654B1B6813F0020F04D0E36827
:10153800012B01D001202AE1604A136823F0F80347
:10154800216943EAC1031360236813F0080F40D0F0
:10155800636963B35B4B01221A60FFF705F8054620
:10156800564B5B6F13F0020F33D1FEF7FDFF401BA4
:101578000228F5D903200AE1504A136823F0F8033A
:10158800216943EAC1031360DEE74D4B00221A606C
:10159800FEF7EAFF0546494B1B6813F0020FD3D04C
:1015A800FEF7E2FF401B0228F5D90320EFE0454B88
:1015B80000221A60FEF7D8FF0546404B5B6F13F018
:1015C800020F06D0FEF7D0FF401B0228F5D90320F2
:1015D800DDE0236813F0040F79D0384B1B6C13F04F
:1015E800805F33D100230193344B1A6C42F0805250
:1015F8001A641B6C03F080530193019B0125324B45
:101608001B6813F4807F23D0A368012B34D0052BEB
:1016180038D02A4B1A6F22F001021A671A6F22F08B
:1016280004021A67A368002B36D0FEF79DFF064612
:10163800224B1B6F13F0020F48D1FEF795FF801B5A
:1016480041F288339842F3D90320A0E00025D6E779
:101658001D4A136843F480731360FEF785FF06463E
:10166800194B1B6813F4807FCED1FEF77DFF801BDA
:101678000228F5D903208AE0104A136F43F00103CA
:101688001367CFE70D4B1A6F42F004021A671A6FFF
:1016980042F001021A67C5E7FEF766FF0646074BE8
:1016A8001B6F13F0020F11D0FEF75EFF801B41F293
:1016B80088339842F3D9032069E000BF003802401C
:1016C80000004742800E474200700040E5B9A36918
:1016D800002B5BD0304A926802F00C02082A58D0DE
:1016E800022B17D02D4B00221A60FEF73DFF04464F
:1016F800294B1B6813F0007F42D0FEF735FF001B13
:101708000228F5D9032042E0234A136C23F08053C2
:101718001364DCE7214B00221A60FEF725FF05461B
:101728001D4B1B6813F0007F06D0FEF71DFF401B02
:101738000228F5D903202AE0E369226A1343626A82
:1017480043EA8213A26A5208013A43EA0243E26A70
:1017580043EA0263104A5360104B01221A60FEF7F5
:1017680003FF04460C4B1B6813F0007F06D1FEF7FD
:10177800FBFE001B0228F5D9032008E0002006E044
:10178800002004E001207047012000E0002002B0A2
:1017980070BD0120FBE700BF0038024060004742EF
:1017A800264B9B6803F00C03042B44D0082B01D074
:1017B800234870472DE9F04B204B5A6802F03F024E
:1017C8005B6813F4800F13D01C4B5968C1F3881160
:1017D80000231C48A1FB0001FEF7F2FC174B5B68D5
:1017E800C3F3014301335B00B0FBF3F0BDE8F08BBA
:1017F800124B5B68C3F388131E4600275C01002563
:10180800E41A65EB0705A90141EA9461A001001BF0
:1018180061EB0501CB0043EA5073C400A01943EB08
:1018280007018B0243EA905384022046194600239D
:10183800FEF7C6FCD2E70348704700BF00380240F5
:101848000024F40040787D01002800F09D8070B5E8
:1018580004464F4B1B6803F00F038B4209D2CBB2EF
:101868004B4A1370136803F00F038B4201D0012019
:1018780070BD236813F0020F17D013F0040F04D0C3
:10188800444A936843F4E0539360236813F0080FC5
:1018980004D0404A936843F4604393603D4A936898
:1018A80023F0F003A068034393600D46236813F008
:1018B800010F32D06368012B21D09A1E012A25D945
:1018C800344A126812F0020F60D032498A6822F056
:1018D800030213438B60FEF747FE06462D4B9B68B9
:1018E80003F00C036268B3EB820F16D0FEF73CFEE0
:1018F800801B41F288339842F0D90320B8E7254A83
:10190800126812F4003FE0D10120B1E7214A1268C1
:1019180012F0007FD9D10120AAE71D4B1B6803F004
:101928000F03AB4209D9EAB2194B1A701B6803F0CE
:101938000F03AB4201D001209AE7236813F0040F8C
:1019480006D0144A936823F4E053E1680B4393608C
:10195800236813F0080F07D00E4A936823F46043F6
:10196800216943EAC1039360FFF71AFF094B9B689B
:10197800C3F30313084AD35CD840084B186000200F
:10198800FEF7A8FD002073E70120704701206FE7EC
:10199800003C024000380240682B00080800002084
:1019A800014B1868704700BF0800002008B5FFF712
:1019B800F7FF044B9B68C3F38223034AD35CD840E8
:1019C80008BD00BF00380240782B000808B5FFF7B3
:1019D800E7FF044B9B68C3F34233034AD35CD84008
:1019E80008BD00BF00380240782B000830B583B02E
:1019F8000446036813F0050F06D1236813F0020F9D
:101A08002ED1002003B030BD494B00221A60FEF7EA
:101A1800ABFD0546474B1B6813F0006F06D0FEF779
:101A2800A3FD401B0228F5D90320EBE76268A368F1
:101A38001B0743EA82133F4AC2F884303C4B012219
:101A48001A60FEF791FD05463A4B1B6813F0006FCC
:101A5800D3D1FEF789FD401B0228F5D90320D1E731
:101A680000230193334B1A6C42F080521A641B6CAA
:101A780003F080530193019B2F4A136843F480734A
:101A88001360FEF771FD05462B4B1B6813F4807F2E
:101A980006D1FEF769FD401B0228F5D90320B1E7FE
:101AA800244B1B6F13F4407312D0E26802F44072A7
:101AB8009A420DD01F4B1A6F22F440721F49012021
:101AC8000860002008601A671B6F13F0010F13D11C
:101AD800E36803F44072B2F5407F1ED0154A93685C
:101AE80023F4F813936013490B6FE268C2F30B02F7
:101AF80013430B67002085E7FEF736FD05460D4BBF
:101B08001B6F13F0020FE3D1FEF72EFD401B41F2CD
:101B180088339842F3D9032074E706498A6822F487
:101B2800F81223F0704323F4407313438B60DAE711
:101B3800680047420038024000700040400E4742AB
:101B480001282AD1174B9B6813F4000303D0012BFB
:101B580025D115487047134B5B6813F4800F14D0D8
:101B6800104B5B6803F03F031048B0FBF3F00D4ADD
:101B7800D2F88430C3F3881300FB03F0D2F8843022
:101B8800C3F30273B0FBF3F07047064B5B6803F0D6
:101B98003F030748B0FBF3F0E9E700207047002057
:101BA800704700BF003802400080BB0040787D01CC
:101BB8000024F40000283BD010B5044600238362BB
:101BC80090F85130002B2ED0022384F8513022682F
:101BD800136823F0400313606368A2681343E26844
:101BE80013432269134362691343A26902F4007222
:101BF8001343E2691343226A1343A16A22680B4321
:101C08001360638B03F00403616A22680B4353601B
:101C18002268D36923F40063D3610020606501233F
:101C280084F8513010BD80F8503000F063FECBE7E7
:101C3800012070472DE9F84304460268136923F42C
:101C48004053C1680B4313618368026913434269B7
:101C58001343C2691A430168CB6823F4164323F07F
:101C68000C031343CB600268536923F44073816902
:101C78000B435361C369B3F5004F60D00368B84A9A
:101C8800934200F0148102F58062934200F00F81C4
:101C9800FFF78CFE00EB800000EB80006568AD006C
:101CA800B0FBF5F5AF4FA7FB05356D092E01FFF722
:101CB8007DFE00EB800000EB80006568AD00B0FBA6
:101CC800F5F9FFF773FE00EB800000EB8000656814
:101CD800AD00B0FBF5F5A7FB05356D094FF06408BD
:101CE80008FB15952D013235A7FB05356D0905F063
:101CF800F0053544FFF75AFE00EB800000EB80004A
:101D08006668B600B0FBF6F6FFF750FE00EB800001
:101D180000EB800063689B00B0FBF3F0A7FB00308A
:101D2800400908FB10684FEA081808F13208A7FBB9
:101D38000837C7F3431723682F449F600DE10368F2
:101D4800874A93425BD002F58062934257D0FFF7EF
:101D58002DFE00EB800000EB800065686D00B0FB95
:101D6800F5F5804FA7FB05356D092E01FFF71EFE1F
:101D780000EB800000EB800065686D00B0FBF5F9B2
:101D8800FFF714FE00EB800000EB800065686D0033
:101D9800B0FBF5F5A7FB05356D094FF0640808FBA6
:101DA8001595ED003235A7FB05356D096D0005F475
:101DB800F8753544FFF7FAFD00EB800000EB800072
:101DC80066687600B0FBF6F6FFF7F0FD00EB8000E2
:101DD80000EB800063685B00B0FBF3F3A7FB032311
:101DE8005B0908FB13684FEAC80808F13208A7FB2B
:101DF8000837C7F3421723682F449F60ADE0FFF709
:101E0800E5FD00EB800000EB800065686D00B0FB2D
:101E1800F5F5544FA7FB05356D092E01FFF7D6FDE3
:101E280000EB800000EB800065686D00B0FBF5F901
:101E3800FFF7CCFD00EB800000EB800065686D00CB
:101E4800B0FBF5F5A7FB05356D094FF0640808FBF5
:101E58001595ED003235A7FB05356D096D0005F4C4
:101E6800F8753544FFF7B2FD00EB800000EB800009
:101E780066687600B0FBF6F6FFF7A8FD00EB800079
:101E880000EB800063685B00B0FBF3F3A7FB032360
:101E98005B0908FB13684FEAC80808F13208A7FB7A
:101EA8000837C7F3421723682F449F6055E0FFF7B0
:101EB8008DFD00EB800000EB80006568AD00B0FB95
:101EC800F5F5284FA7FB05356D092E01FFF77EFDB7
:101ED80000EB800000EB80006568AD00B0FBF5F911
:101EE800FFF774FD00EB800000EB80006568AD0033
:101EF800B0FBF5F5A7FB05356D094FF0640808FB45
:101F080015952D013235A7FB05356D0905F0F0054E
:101F18003544FFF75BFD00EB800000EB800066684E
:101F2800B600B0FBF6F6FFF751FD00EB800000EBC2
:101F3800800063689B00B0FBF3F0A7FB003040090A
:101F480008FB10684FEA081808F13208A7FB0837A1
:101F5800C7F3431723682F449F60BDE8F88300BF89
:101F6800001001401F85EB512DE9F04105460F4651
:101F780016469846069C2B681B6837EA03030CBF75
:101F880001230023B3421DD1B4F1FF3FF3D02CB19C
:101F9800FEF7EAFAA0EB0800A042ECD92A68D36859
:101FA80023F4D073D3602A68536923F00103536183
:101FB800202385F8393085F83A30002385F8383001
:101FC800032000E00020BDE8F08158B310B50446B6
:101FD80090F839300BB3242384F839302268D36859
:101FE80023F40053D3602046FFF724FE22681369C8
:101FF80023F4904313612268536923F02A03536141
:102008002268D36843F40053D3600020E0632023A0
:1020180084F8393084F83A3010BD80F8383000F050
:10202800B7FCD8E7012070472DE9F04182B01E4681
:1020380090F83A30DBB2202B5AD104460D46904630
:10204800002959D0002A59D090F83830012B57D0A0
:10205800012380F838300023C363222380F83A3004
:10206800FEF782FA0746A4F82C80A4F82E801DE01B
:1020780000963B46002220212046FFF775FF0028E6
:1020880040D1236933B923685B68C3F3080325F893
:10209800023B0BE023685B68DBB225F8013B05E0F7
:1020A80023685B6803F07F032B700135E38D9BB2D7
:1020B800BBB1E38D013B9BB2E385A368B3F5805FB9
:1020C800D6D000963B46002220212046FFF74CFF41
:1020D800D0B92369002BE3D123685B682B700135E5
:1020E800E4E7202384F83A30002084F8380000E040
:1020F800022002B0BDE8F0810120FAE70120F8E7EC
:102108000220F6E70320F4E70320F2E7F8B50746D4
:102118000E4615461C464F4B00221A604FF47A7142
:10212800FEF788FB002841D04FF47A713046FEF75D
:1021380081FB002845D04FF47A712846FEF77AFBD8
:10214800002850D0434A136852689B1A424A1360C9
:10215800B3F5805F51D93F4B0022DA609B68F02BC2
:1021680002D9F03B3B4AD3603C4B01221A60394A02
:10217800536812689B1AB3F5805F4ED9354B00221D
:102188001A619B68592B03D8C3F15A03314A13616A
:10219800304DEB68002211462046FEF73BFD2B69C7
:1021A800002210212046FEF735FDF8BD3846FEF71F
:1021B8009CFB284B1860B0F5FA6FB5D900221A605D
:1021C800B2E73046FEF791FB224B58601B681BB9FB
:1021D800204B00225A60AEE7C728ACD81D4B00221E
:1021E8005A601A60A7E72846FEF77FFB1C4BA3FB43
:1021F8000030C008174B9860A4E703EB83035A002C
:10220800144BDA609B68F02B03D91A44F03A114B4F
:10221800DA60124B00221A60A9E7104A12685AB90C
:10222800632B09D80B4B1A619B68592BB0D8C3F1A3
:102238005A03084A1361ABE703EB83035A00054BC3
:102248001A619B68592BA3D8D21A5A32014B1A61CA
:102258009EE700BF28000020540000205000002006
:10226800CDCCCCCC30B58BB0002405940694079423
:102278000894099400942E4B1A6B42F080021A635A
:102288001A6B02F080020092009A01941A6B42F0D5
:1022980004021A631A6B02F004020192019A029472
:1022A8001A6B42F001021A631A6B02F001020292E1
:1022B800029A03941A6B42F002021A631A6B02F034
:1022C80002020392039A04941A6B42F008021A63FA
:1022D8001B6B03F008030493049B164D0122202175
:1022E8002846FEF793FD20230593012306930794C0
:1022F800089405A92846FEF7A5FC4FF4007305933A
:1023080006940794A5F5006505A92846FEF79AFCEA
:102318004FF4E0530593022306930794032308938D
:102328000A23099305A92846FEF78CFC0BB030BD9B
:10233800003802400008024070B584B000250095BE
:102348000195029503950F4C0F4B23606560A560BE
:1023580001262661267684F82050E5620B4BA3629D
:10236800E560E66184F8305065612046FEF79CF927
:102378000C2300930196029569462046FEF7B8FAA9
:1023880004B070BD80010020002201400100000F50
:1023980070B584B0002500950195029503950F4C02
:1023A8000F4B23606560A56001262661267684F8B8
:1023B8002050E5620B4BA362E560E66184F830507B
:1023C80065612046FEF770F90A230093019602958D
:1023D80069462046FEF78CFA04B070BD380100202B
:1023E800002001400100000F70B584B00025009561
:1023F8000195029503950F4C0F4B23606560A5600E
:1024080001262661267684F82050E5620B4BA362EC
:10241800E560E66184F8305065612046FEF744F9CE
:102428000B2300930196029569462046FEF760FA51
:1024380004B070BDB0000020002101400100000F71
:1024480030B583B00024009401940A4D0A4B2B60E8
:102458002846FEF771FB00940194224669462846F7
:10246800FEF7B3FB102269462846FEF7AEFB03B021
:1024780030BD00BFC80100200074004008B50A48FC
:102488000A4B03604FF40073436000238360C3600A
:1024980003614FF4FA5242618361C361012303620D
:1024A800FEF7BAFC08BD00BFDC010020003C00407C
:1024B80008B50B480B4B03604FF48273436000234D
:1024C8008360C360036143614FF400728261C3613A
:1024D8000362436283620A23C362FFF76BFB08BD92
:1024E800580000200038004008B50848084B036031
:1024F8004FF4E133436000238360C36003610C221F
:1025080042618361C361FFF760FD08BDF8000020E8
:1025180000500040F0B599B0302200210DEB0200C8
:1025280000F006FB00240794089409940A940B947D
:10253800039404940594069401941F4B1A6C42F07A
:1025480080521A641B6C03F080530193019B029420
:102558001A4B1A6842F480421A601B6803F48043DD
:102568000293029B03230C934FF480330D930126AF
:102578000F9610231093022512954FF4800313939E
:102588000F271497902315931695052317930CA8D6
:10259800FEF73AFF0797089409940A940B9421468A
:1025A80007A8FFF751F903963C230493059503A860
:1025B800FFF71CFA19B0F0BD003802400070004067
:1025C80008B5FDF7ABFFFFF7A5FFFFF74BFEFFF7D9
:1025D800B3FEFFF735FFFFF751FFFFF769FFFFF77E
:1025E80083FFFFF7D5FEFFF7FFFE0E48FEF788F8DA
:1025F8000D48FEF785F80D48FEF782F80C4C0021CF
:102608002046FEF7ABFA10212046FEF7A7FA084B42
:10261800064A05490348FFF779FD064800F00CF81B
:10262800F5E700BF38010020B0000020800100203D
:10263800C8010020F800002010B50C4C4FF4967328
:1026480005222146FFF7F0FC09492046FDF738FF2F
:1026580040B108490548FDF733FF30B9064B02225F
:102668001A6002E0044B01221A6010BD2402002007
:10267800802B0008602B00084800002082B0002151
:1026880000910B4B5A6C42F480425A645A6C02F423
:1026980080420092009A01911A6C42F080521A64AA
:1026A8001B6C03F080530193019B02B0704700BF7D
:1026B8000038024000B58DB00023079308930993B2
:1026C8000A930B930368344A934208D0334A9342DF
:1026D80024D0334A934240D00DB05DF804FB00216A
:1026E8000191304B5A6C42F480725A645A6C02F46D
:1026F80080720192019A02911A6B42F004021A63E5
:102708001B6B03F004030293029B0123079303232B
:10271800089307A92448FEF795FADDE700210391FD
:10272800204B5A6C42F400725A645A6C02F40072DC
:102738000392039A04911A6B42F004021A631B6B0A
:1027480003F004030493049B0223079303230893D1
:1027580007A91548FEF776FABEE700210591114B47
:102768005A6C42F480625A645A6C02F48062059290
:10277800059A06911A6B42F004021A631B6B03F068
:1027880004030693069B042307930323089307A9CE
:102798000548FEF757FA9FE7002001400021014055
:1027A80000220140003802400008024000B589B00C
:1027B8000023039304930593069307930268134B2E
:1027C8009A4202D009B05DF804FB0021019103F59B
:1027D800E2331A6C42F000521A641A6C02F000528A
:1027E8000192019A02911A6B42F001021A631B6B63
:1027F80003F001030293029B302303930323049302
:1028080003A90348FEF71EFADCE700BF0074004086
:1028180000000240F0B58BB00023059306930793A0
:102828000893099302682F4B9A4201D00BB0F0BD70
:102838000024019403F5FE331A6C42F400421A6432
:102848001A6C02F400420192019A02941A6B42F047
:1028580001021A631A6B02F001020292029A0394AF
:102868001A6B42F004021A631A6B02F00402039214
:10287800039A04941A6B42F002021A631B6B03F06A
:1028880002030493049B4FF4004305930225069525
:102898000626099605A91448FEF7D4F94FF4806373
:1028A80005930695079408940996104F05A938468C
:1028B800FEF7C8F94FF4006305930695079408944A
:1028C8000523099305A93846FEF7BCF9202305938B
:1028D800069507940894099605A90548FEF7B2F9E4
:1028E800A4E700BF003C004000000240000802408E
:1028F80000040240F0B589B00023039304930593C4
:102908000693079302681F4B9A4201D009B0F0BDA5
:102918000024009403F500331A6C42F480421A64D0
:102928001A6C02F480420092009A01941A6B42F0E9
:1029380004021A631A6B02F004020192019A0294CB
:102948001A6B42F002021A631B6B03F00203029334
:10295800029B08230393022704970326069605255E
:10296800079503A90848FEF76DF94FF488430393C8
:10297800049705940696079503A90448FEF762F99B
:10298800C4E700BF003800400008024000040240CD
:10299800F0B589B000230393049305930693079336
:1029A8000268204B9A4201D009B0F0BD0022009283
:1029B80003F5F433196C41F480111964196C01F4AE
:1029C8008011009100990192196B41F0040119637B
:1029D800196B01F004010191019902921A6B42F0FE
:1029E80008021A631B6B03F008030293029B4FF45F
:1029F800805303930227049701260596032506951D
:102A08000824079403A90848FEF71CF90423039334
:102A1800049705960695079403A90448FEF712F94A
:102A2800C2E700BF0050004000080240000C02400E
:102A38007047FEE7FEE7FEE7FEE77047704770471E
:102A480008B5FDF785FD08BD0F49D1F8883043F476
:102A58007003C1F888300D4B1A6842F001021A6001
:102A6800002098601A6822F0847222F480321A607A
:102A7800074A5A601A6822F480221A60D8604FF018
:102A880000638B60704700BF00ED00E00038024033
:102A980010300024DFF834D0002103E00C4B5B58E1
:102AA800435004310B480C4B42189A42F6D30B4A58
:102AB80002E0002342F8043B094B9A42F9D3FFF79E
:102AC800C3FF00F011F8FFF77BFD704700000220FC
:102AD800982B0008000000200C0000200C000020AB
:102AE8002C020020FEE7000070B50D4E0D4CA41B13
:102AF800A4100025A54209D10B4E0C4C00F020F87B
:102B0800A41BA4100025A54205D170BD56F8253098
:102B180098470135EEE756F8253098470135F2E732
:102B2800902B0008902B0008902B0008942B00088D
:102B380002440346934200D1704703F8011BF9E7AA
:102B4800F8B500BFF8BC08BC9E467047F8B500BF92
:082B5800F8BC08BC9E46704762
:102B60006C656674000000000000000000000000BA
:102B70000102030406070809000000000102030423
:082B800072696768740000002F
:082B880070D6FF7F0100000080
:042B9000AD0100088B
:042B940089010008AB
:0C2B980001000000100000000024F40008
:0400000508002A9D28
:00000001FF
