:020000040800F2
:100000000000022005380008713700087337000827
:1000100075370008773700087937000800000000BE
:100020000000000000000000000000007B37000816
:100030007D370008000000007F3700088137000886
:10004000553800085538000855380008553800085C
:10005000553800085538000855380008553800084C
:10006000553800085538000855380008553800083C
:10007000553800085538000855380008553800082C
:10008000553800085538000855380008553800081C
:10009000553800085538000855380008553800080C
:1000A00089370008553800085538000855380008C9
:1000B00055380008553800085538000855380008EC
:1000C00055380008553800085538000855380008DC
:1000D0009937000855380008553800085538000889
:1000E00055380008553800085538000855380008BC
:1000F00055380008553800085538000855380008AC
:10010000553800085538000855380008553800089B
:1001100055380008A9370008553800085538000838
:10012000553800085538000855380008553800087B
:100130005538000800000000000000005538000895
:10014000553800085538000855380008553800085B
:10015000553800085538000855380008553800084B
:10016000553800085538000855380008553800083B
:100170005538000855380008000000000000000055
:0801800055380008553800084D
:1001880010B5054C237833B9044B13B10448AFF3C9
:1001980000800123237010BD240B00200000000004
:1001A800B038000808B5034B1BB103490348AFF347
:1001B800008008BD00000000280B0020B0380008AF
:1001C80053B94AB9002908BF00281CBF4FF0FF31B6
:1001D8004FF0FF3000F072B9ADF1080C6DE904CEB4
:1001E80000F006F8DDF804E0DDE9022304B070470A
:1001F8002DE9F047089E04468846002B4BD18A42D9
:10020800154667D9B2FA82F24AB1C2F1200701FA5B
:1002180002F320FA07F7954047EA030894404FEAAB
:10022800154E230CB8FBFEF71FFA85FC0EFB17884A
:1002380043EA084307FB0CF1994209D9EB1807F187
:10024800FF3080F01B81994240F21881023F2B4415
:100258005B1AA4B2B3FBFEF00EFB103344EA03446E
:1002680000FB0CFCA44509D92C1900F1FF3380F0E0
:100278000781A44540F2048102382C4440EA074033
:10028800A4EB0C0400271EB1D4400023C6E90043A8
:100298003946BDE8F0878B4209D9002E00F0EB8083
:1002A8000027C6E9000138463946BDE8F087B3FAA9
:1002B80083F7002F47D18B4202D3824200F2FA80A3
:1002C800841A61EB030301209846002EE0D0C6E9AA
:1002D8000048DDE702B9FFDEB2FA82F2002A40F0F8
:1002E8008F80491B4FEA154E1FFA85F80127B1FB8D
:1002F800FEFC230C0EFB1C1143EA014308FB0CF126
:10030800994207D9EB180CF1FF3002D2994200F25A
:10031800CD808446591AA3B2B1FBFEF00EFB10142F
:1003280043EA044408FB00F8A04507D92C1900F15A
:10033800FF3302D2A04500F2B6801846A4EB0804A9
:1003480040EA0C409FE7C7F1200CBB4022FA0CFEA4
:100358004EEA030E01FA07F420FA0CF521FA0CF321
:100368004FEA1E482543B3FBF8F92C0C08FB193358
:100378001FFA8EFA44EA034309FB0AF49C4202FA84
:1003880007F200FA07F10BD91EEB030309F1FF305E
:1003980080F087809C4240F28480A9F1020973446E
:1003A8001B1BADB2B3FBF8F008FB103345EA03445E
:1003B80000FB0AFAA24508D91EEB040400F1FF333A
:1003C8006BD2A24569D90238744440EA0940A0FBBF
:1003D8000289A4EB0A044C45C2464B4654D351D07B
:1003E800002E69D0B1EB0A0564EB030404FA0CFC97
:1003F800FD40FC404CEA0505C6E90054002747E7E4
:10040800C2F1200320FA03F7954001FA02F021FA1D
:1004180003F34FEA154E3843010CB3FBFEF71FFAFE
:1004280085F80EFB173341EA034107FB08F38B42BB
:1004380004FA02F407D9691807F1FF3C2FD28B425E
:100448002DD9023F2944CB1A81B2B3FBFEF00EFB33
:10045800103341EA034100FB08F38B4207D96918BE
:1004680000F1FF3C17D28B4215D902382944C91A2A
:1004780040EA07473BE73746304609E70746E7E6DD
:100488001846FBE64145ABD2B8EB020A69EB0E020F
:1004980001381346A4E76046E9E7184695E767463A
:1004A800D1E781467CE702382C4447E7ACF1020CDF
:1004B8002B442FE7384608E73746E9E6704700BF80
:1004C80010B504460E4B18784FF47A73B3FBF0F36B
:1004D8000C4A1068B0FBF3F000F01CFB68B90F2C55
:1004E80001D901200AE0002221464FF0FF3000F038
:1004F800CFFA034B5C60002000E0012010BD00BF74
:1005080000000020200B002008B50B4B1A6842F4AD
:1005180000721A601A6842F480621A601A6842F41B
:1005280080721A60032000F0A1FA0020FFF7C8FFCC
:1005380002F00CFF002008BD003C0240034A11688D
:10054800034B1B780B441360704700BF600B0020FF
:1005580000000020014B1868704700BF600B0020A6
:100568004A4B5A6822F440325A605A6841680A4332
:100578005A600268536823F48073536002685368B2
:10058800016943EA012353600268536823F040730A
:1005980053600268536881680B435360026893682C
:1005A80023F40063936002689368C1680B43936007
:1005B800826A374B9A424BD00268936823F0706383
:1005C800936002689368816A0B439360026893683A
:1005D80023F04053936002689368C16A0B439360A9
:1005E8000268936823F00203936002689368017EAF
:1005F80043EA4103936090F82030002B33D102681E
:10060800536823F4006353600268D36A23F47003C9
:10061800D3620168CB6AC269013A43EA0253CB62EA
:100628000268936823F4007393600268936890F8F3
:10063800301043EA412393600268936823F480638F
:10064800936002689368416943EA81239360704725
:100658000268936823F0706393600268936823F0DC
:1006680040539360BCE70268536843F400635360E7
:100678000268536823F46043536001684B68426A18
:10068800013A43EA42334B60BEE700BF0023014012
:100698000100000F38B310B50446036C43B1236C56
:1006A80013F0100F0BD00120002384F83C3010BD4C
:1006B80002F068FE0023636484F83C30EFE7236CA3
:1006C80023F4885323F0020343F0020323642046F3
:1006D800FFF746FF00206064236C23F0030343F018
:1006E80001032364E0E701207047000082B0002383
:1006F800019390F83C30012B7DD0012380F83C30E9
:1007080003689A6812F0010F13D19A6842F0010247
:100718009A603E4B1B683E4AA2FB03239B0C03EBEB
:100728004303019302E0019B013B0193019B002BD2
:10073800F9D10268936813F0010F5ED0036C23F4BB
:10074800E06323F0010343F480730364536813F4F4
:10075800806F05D0036C23F4405343F48053036443
:10076800036C13F4805F1BD0436C23F006034364CF
:10077800002380F83C306FF022031360254B5B6840
:1007880013F01F0F27D10368234A934219D002F5AB
:100798008072934207D0214A93420BD000202DE06B
:1007A80000234364E4E702F50072526812F01F0F59
:1007B80007D0F0E702F58072526802F01F020F2A94
:1007C8001ED89A6812F0405F1CD19A6842F08042A5
:1007D8009A60002012E003680F4A934201D000207B
:1007E8000CE09A6812F0405F0ED19A6842F080429D
:1007F8009A60002002E0022000E0002002B070476A
:100808000020FBE70020F9E70020F7E7200B002095
:1008180083DE1B43002301400020014000220140E9
:1008280003689A6812F4806F03D09B6813F4807F82
:100838001CD170B50D460446FFF78CFE06462368AA
:100848001A6812F0020F1AD1B5F1FF3FF7D025B19F
:10085800FFF780FE801BA842F1D9236C43F0040304
:100868002364002384F83C3003202DE0036C43F01C
:1008780020030364002380F83C30012070476FF0A8
:1008880012021A60236C43F40073236423689A6885
:1008980012F0405F17D1227EBAB9DA6A12F4700FEB
:1008A80003D09B6813F4806F11D1236C23F48073F9
:1008B8002364236C13F4805F0BD1236C43F0010392
:1008C8002364002000E0002070BD0020FCE7002029
:1008D800FAE70020F8E70368D86C704730B482B0B4
:1008E8000023019390F83C30012B00F0B7800123DE
:1008F80080F83C300B68092B3ED90568EA689BB242
:1009080003EB43031E3B072404FA03F322EA030321
:10091800EB600568EA688C680B8803EB43031E3BB1
:1009280004FA03F31343EB604B68062B3AD80568C7
:100938006A6B03EB8303053B1F2404FA03F322EAE3
:1009480003036B6305686A6B4B6803EB8303053B22
:100958000C8804FA03F313436B630268404B9A4212
:1009680050D002683E4B9A4255D0002380F83C3064
:10097800184602B030BC704705682A699BB203EB81
:100988004303072404FA03F322EA03032B610568EF
:100998002A698C680B8803EB430304FA03F31343B7
:1009A8002B61C1E70C2B16D805682A6B03EB830370
:1009B800233B1F2404FA03F322EA03032B6305688D
:1009C8002A6B4B6803EB8303233B0C8804FA03F37D
:1009D80013432B63C1E70568EA6A03EB8303413BD2
:1009E8001F2404FA03F322EA0303EB620568EA6AA8
:1009F8004B6803EB8303413B0C8804FA03F313436E
:100A0800EB62AAE70B68122BABD1164A536843F482
:100A180080035360A5E70B68103B012BA5D8114A4A
:100A2800536843F4000353600B68102B9DD10E4BA1
:100A38001B6802F1467202F52E3202F28332A2FBE3
:100A480003239B0C03EB83035A00019202E0019BF2
:100A5800013B0193019B002BF9D186E7022088E72F
:100A68000020014000230140200B0020074AD368E2
:100A780023F4E0631B041B0C000200F4E06018433D
:100A880040F0BF6040F40030D060704700ED00E0F7
:100A980030B4174BDB68C3F30223C3F10704042CFB
:100AA80028BF04241D1D062D18D9033B4FF0FF3520
:100AB80005FA04F421EA0401994005FA03F322EA4D
:100AC8000303194300280BDB0901C9B200F1604098
:100AD80000F5614080F8001330BC70470023E5E75B
:100AE80000F00F000901C9B2024B1954F4E700BF26
:100AF80000ED00E014ED00E0002807DB00F01F0225
:100B0800400901239340024A42F82030704700BF51
:100B180000E100E00138B0F1807F0AD2064B58604E
:100B2800064AF02182F823100020986007221A60F4
:100B380070470120704700BF10E000E000ED00E0C2
:100B480070B110B50446037933B102232371002034
:100B580020610123237110BD437102F08FFCF4E77B
:100B6800012070474379012B31D010B40123437120
:100B780002220271046822688B4013432360B1B9D2
:100B880002681168136803F0380311F0040F01D0EC
:100B9800382B07D0012303710023437118465DF8F1
:100BA800044B7047536843F001035360F2E702684F
:100BB8001168136803F4601311F4802FEAD0B3F5B9
:100BC800601FE7D1536843F002035360E2E7022055
:100BD80070474379012B1FD070B40125457102235A
:100BE80003710668336840F6FE74944023EA0404EF
:100BF8000B6849680B4393402343336004682368B8
:100C0800C02101FA02F223EA0202226005710023E0
:100C18004371184670BC70470220704710B483B007
:100C2800002401940068019051B101990A441432DA
:100C38000192019A1360002003B05DF8044B7047DD
:100C480001990A4408320192F3E790F83530DBB293
:100C5800022B03D08023436501207047052380F8C9
:100C680035300268136823F00103136000207047D1
:100C780000230F2B00F2D780F0B482B039E00722AE
:100C880000E00022B2403A430234674E46F824207E
:100C9800664A1468EA4302EA04064F6817F4803F7C
:100CA80001D045EA0406614C2660646802EA04063D
:100CB8004F6817F4003F01D045EA04065B4C6660B4
:100CC800A46802EA04064F6817F4801F01D045EAB9
:100CD8000406564CA660E46822404E6816F4001FCD
:100CE80001D045EA0402514CE26001330F2B00F2B7
:100CF800978001229A400C6804EA0205AA42F4D1BE
:100D08004C68022C01D0122C10D1DE08083650F89D
:100D180026C003F00704A7000F24BC402CEA040CEB
:100D28000C69BC4044EA0C0440F8264004685F00A3
:100D38000326BE40F64306EA040C4C6804F003049C
:100D4800BC4044EA0C0404604C6804F1FF3CBCF16C
:100D5800010F03D9112C01D0122C10D1846806EA96
:100D6800040CCC68BC4044EA0C048460446824EA5F
:100D780002024C68C4F300149C4014434460C268E7
:100D880016408A68BA403243C2604A6812F0805FEF
:100D9800ABD000220192264A546C44F48044546437
:100DA800526C02F480420192019A9C08A61C1E4AC9
:100DB80052F8267003F0030296000F22B24027EA89
:100DC80002071C4A90423FF45CAF02F580629042F1
:100DD8001AD002F58062904218D002F580629042E3
:100DE80016D002F58062904214D002F580629042DB
:100DF80012D002F58062904210D002F580629042D3
:100E08003FF43DAF08223DE701223BE7022239E7E4
:100E1800032237E7042235E7052233E7062231E7C4
:100E280002B0F0BC7047704700380140003C0140F8
:100E3800003802400000024012B90904816170477D
:100E480081617047002800F0BF8070B5044690F8B3
:100E58004130002B51D0022284F841202168CB690F
:100E680023F47B6323F00F03CB6123681A62636961
:100E7800934263D0E368002B46D11025A368202B4A
:100E880000D86D00012000F071FE2369B3F5007FE2
:100E98003CD0B0FBF5F000EB800043006269B3FB87
:100EA800F2F30533494AA2FB0323DB0803F00102EE
:100EB8009B1A5B081202991EFD2941D821690A4331
:100EC800216813430B622168CB6923F47B6323F009
:100ED8000F036268A0680243E0680243A069024306
:100EE800134343F40063CB61236A012B2ED0002007
:100EF8006064012384F8413070BD80F84030344B81
:100F0800436302F0EFFAA6E72025B7E7E36853B199
:100F1800AD00B0FBF5F000EB800043006269B3FB65
:100F2800F2F30533BEE7ED00B0FBF5F000EB80000F
:100F380043006269B3FBF2F30533B3E70022BAE773
:100F4800636C43F0100363640120D5E7214B6363AE
:100F58002268214B9A421FD04FF04022D36923F4D4
:100F68007B6323F00F03D36122681B4B9A4215D091
:100F78004FF0402302221A622268174B9A4210D07F
:100F88004FF04021CA6992B26368B3F5007F0AD076
:100F9800C3B94FF4807608E0104ADFE7A3F5806311
:100FA800E8E70E49EEE74FF48076A068E568238B02
:100FB8002B439BB203439BB23343134343F4006375
:100FC800CB6194E70026F0E701207047CDCCCCCC6C
:100FD8005B1000086512000800380040003400402B
:100FE800704708B5426A03681288DA60436A0233B8
:100FF8004362438D013B9BB24385438D9BB203B152
:1010080008BD0268536823F0A0035360012380F8E9
:101018004130FFF7E5FFF3E7704708B50368DA6882
:10102800C36A1A80C36A0233C362438E013B9BB210
:101038004386438E9BB203B108BD0268536823F010
:1010480060035360012380F84130FFF7E5FFF3E7C1
:10105800704710B584B0044602689368039390F80B
:101068004130DBB2042B06D094F84130DBB2032BBD
:101078002CD004B010BD039B13F0010F03D05368AC
:1010880013F0400F1FD1039B13F0400FECD02368DF
:101098005A6812F0200FE7D05A6822F060025A60AE
:1010A800002301932368DA6801929B680193019BEE
:1010B800012384F84130636C43F0020363642046E3
:1010C800FFF7C6FFD0E7FFF7A8FFDCE7039B13F0A5
:1010D800020F04D023685B6813F0800F1DD1039BB7
:1010E80013F0080FC5D023685A6812F0200FC0D03B
:1010F8005A6822F0A0025A600023029323689B6872
:101108000293029B012384F84130636C43F004038B
:1011180063642046FFF79CFFABE72046FFF761FFBB
:10112800DDE7704708B5436A9A1C426202681B886B
:10113800D360438D013B9BB24385438D9BB23BB942
:101148000268536823F0A0035360438E9BB203B137
:1011580008BD012380F84130FFF7E3FFF8E70000FE
:1011680008B50268144B9A421BD04FF04023DA6846
:10117800C36A991CC1621A80438E013B9BB24386A5
:10118800438E9BB263B902680B4B9A420CD04FF066
:101198004022536823F060035360438D9BB22BB108
:1011A80008BDA3F58063E2E7044AF2E7012380F86B
:1011B8004130FFF7B6FFF3E7003800400034004045
:1011C80008B5436A9A1C42621A880168124B994210
:1011D80017D04FF04023DA60438D013B9BB2438523
:1011E800438D9BB263B902680B4B9A420CD04FF007
:1011F8004022536823F0A0035360438E9BB22BB167
:1012080008BDA3F58063E6E7044AF2E7012380F806
:101218004130FFF786FFF3E7003800400034004014
:1012280008B50368DA68C36A991CC1621A80438EDC
:10123800013B9BB24386438E9BB23BB9026853681D
:1012480023F060035360438D9BB203B108BD0123B3
:1012580080F84130FFF765FFF8E7000010B586B069
:10126800044603689A680592704A93426FD04FF01B
:101278004022916804915B68039353680293636802
:10128800B3F5007F01D0002B70D1059B13F0020F3E
:1012980003D0039B13F0800F5CD1049B13F0010F64
:1012A80003D0029B13F0400F58D1049B13F0400F5A
:1012B80024D0029B13F0200F20D022685B4B9A4267
:1012C80050D04FF04022536823F0600353602268E7
:1012D800536823F0A0035360002300932368DA685F
:1012E80000929B680093009B012384F84130636C53
:1012F80043F0020363642046FFF7AAFE059B13F040
:10130800080F22D0039B13F0200F1ED022685368C9
:1013180023F0A00353602268444B9A4224D04FF034
:101328004022536823F0600353600023019323682D
:101338009B680193019B012384F84130636C43F05F
:10134800040363642046FFF783FE06B010BDA2F5D0
:1013580080628EE72046FFF7E5FE9EE72046FFF70E
:10136800FFFEA2E7324AAEE7314ADAE7049B13F000
:10137800020F03D0029B13F0800F4AD1059B13F094
:10138800010F03D0039B13F0400F46D1059B13F0C8
:10139800400F1CD0039B13F0200F18D0226853680D
:1013A80023F0600353602268204B9A4239D04FF0F3
:1013B8004022536823F0A0035360012384F841308E
:1013C800636C43F0020363642046FFF741FE049B0D
:1013D80013F0080FB9D0029B13F0200FB5D0226884
:1013E800124B9A421FD04FF04022536823F0A003BB
:1013F80053602268536823F060035360012384F824
:101408004130636C43F0040363642046FFF720FE19
:101418009BE72046FFF7D4FEB0E72046FFF700FF22
:10142800B4E7034AC5E7024ADFE700BF00380040D7
:1014380000340040002800F0BB8170B582B004463B
:10144800036813F0010F3BD0A74B9B6803F00C0314
:10145800042B2CD0A44B9B6803F00C03082B21D041
:101468006368B3F5803F4FD0B3F5A02F52D09E4BA1
:101478001A6822F480321A601A6822F480221A60EC
:101488006368002B50D0FFF765F80546964B1B683C
:1014980013F4003F14D1FFF75DF8401B6428F5D919
:1014A80003208AE1904B5B6813F4800FD8D08E4BF1
:1014B8001B6813F4003F03D06368002B00F07A81A7
:1014C800236813F0020F55D0874B9B6813F00C0F5D
:1014D8003ED0854B9B6803F00C03082B33D0E368A0
:1014E800002B68D0814B01221A60FFF733F80546BC
:1014F8007D4B1B6813F0020F54D1FFF72BF8401BEC
:101508000228F5D9032058E1774A136843F4803359
:101518001360B5E7744B1A6842F480221A601A689F
:1015280042F480321A60ABE7FFF714F805466E4BB9
:101538001B6813F4003FC3D0FFF70CF8401B642866
:10154800F5D9032039E1684B5B6813F4800FC6D1E5
:10155800654B1B6813F0020F04D0E368012B01D020
:1015680001202AE1604A136823F0F803216943EA5D
:10157800C1031360236813F0080F40D0636963B395
:101588005B4B01221A60FEF7E5FF0546564B5B6F81
:1015980013F0020F33D1FEF7DDFF401B0228F5D907
:1015A80003200AE1504A136823F0F803216943EA4B
:1015B800C1031360DEE74D4B00221A60FEF7CAFF35
:1015C8000546494B1B6813F0020FD3D0FEF7C2FF44
:1015D800401B0228F5D90320EFE0454B00221A6092
:1015E800FEF7B8FF0546404B5B6F13F0020F06D0BD
:1015F800FEF7B0FF401B0228F5D90320DDE0236881
:1016080013F0040F79D0384B1B6C13F0805F33D183
:1016180000230193344B1A6C42F080521A641B6CFD
:1016280003F080530193019B0125324B1B6813F48F
:10163800807F23D0A368012B34D0052B38D02A4BC8
:101648001A6F22F001021A671A6F22F004021A6751
:10165800A368002B36D0FEF77DFF0646224B1B6F92
:1016680013F0020F48D1FEF775FF801B41F2883353
:101678009842F3D90320A0E00025D6E71D4A136855
:1016880043F480731360FEF765FF0646194B1B6829
:1016980013F4807FCED1FEF75DFF801B0228F5D9B9
:1016A80003208AE0104A136F43F001031367CFE762
:1016B8000D4B1A6F42F004021A671A6F42F00102CA
:1016C8001A67C5E7FEF746FF0646074B1B6F13F080
:1016D800020F11D0FEF73EFF801B41F2883398427B
:1016E800F3D9032069E000BF0038024000004742F8
:1016F800800E474200700040E5B9A369002B5BD01B
:10170800304A926802F00C02082A58D0022B17D0EF
:101718002D4B00221A60FEF71DFF0446294B1B685B
:1017280013F0007F42D0FEF715FF001B0228F5D901
:10173800032042E0234A136C23F080531364DCE750
:10174800214B00221A60FEF705FF05461D4B1B685A
:1017580013F0007F06D0FEF7FDFE401B0228F5D9E6
:1017680003202AE0E369226A1343626A43EA821388
:10177800A26A5208013A43EA0243E26A43EA026370
:10178800104A5360104B01221A60FEF7E3FE04462C
:101798000C4B1B6813F0007F06D1FEF7DBFE001B25
:1017A8000228F5D9032008E0002006E0002004E024
:1017B80001207047012000E0002002B070BD012028
:1017C800FBE700BF0038024060004742264B9B6899
:1017D80003F00C03042B44D0082B01D02348704796
:1017E8002DE9F04B204B5A6802F03F025B6813F476
:1017F800800F13D01C4B5968C1F3881100231C4873
:10180800A1FB0001FEF7DCFC174B5B68C3F3014347
:1018180001335B00B0FBF3F0BDE8F08B124B5B6863
:10182800C3F388131E4600275C010025E41A65EB04
:101838000705A90141EA9461A001001B61EB0501BC
:10184800CB0043EA5073C400A01943EB07018B0295
:1018580043EA90538402204619460023FEF7B0FC61
:10186800D2E70348704700BF003802400024F40064
:1018780040787D01002800F09D8070B504464F4BEC
:101888001B6803F00F038B4209D2CBB24B4A13708B
:10189800136803F00F038B4201D0012070BD236849
:1018A80013F0020F17D013F0040F04D0444A9368C2
:1018B80043F4E0539360236813F0080F04D0404AC0
:1018C800936843F4604393603D4A936823F0F003C0
:1018D800A068034393600D46236813F0010F32D0CC
:1018E8006368012B21D09A1E012A25D9344A12682F
:1018F80012F0020F60D032498A6822F003021343C3
:101908008B60FEF727FE06462D4B9B6803F00C0301
:101918006268B3EB820F16D0FEF71CFE801B41F203
:1019280088339842F0D90320B8E7254A126812F4A0
:10193800003FE0D10120B1E7214A126812F0007F90
:10194800D9D10120AAE71D4B1B6803F00F03AB4256
:1019580009D9EAB2194B1A701B6803F00F03AB429E
:1019680001D001209AE7236813F0040F06D0144A27
:10197800936823F4E053E1680B439360236813F002
:10198800080F07D00E4A936823F46043216943EA9D
:10199800C1039360FFF71AFF094B9B68C3F3031356
:1019A800084AD35CD840084B18600020FEF788FD31
:1019B800002073E70120704701206FE7003C0240D8
:1019C80000380240C8380008200B0020014B186876
:1019D800704700BF200B002008B5FFF7F7FF044B46
:1019E8009B68C3F38223034AD35CD84008BD00BF79
:1019F80000380240D838000808B5FFF7E7FF044B65
:101A08009B68C3F34233034AD35CD84008BD00BF88
:101A180000380240D838000830B583B0044603685F
:101A280013F0050F06D1236813F0020F2ED1002002
:101A380003B030BD494B00221A60FEF78BFD054606
:101A4800474B1B6813F0006F06D0FEF783FD401B61
:101A58000228F5D90320EBE76268A3681B0743EA6D
:101A680082133F4AC2F884303C4B01221A60FEF7C9
:101A780071FD05463A4B1B6813F0006FD3D1FEF792
:101A880069FD401B0228F5D90320D1E70023019303
:101A9800334B1A6C42F080521A641B6C03F080536B
:101AA8000193019B2F4A136843F480731360FEF778
:101AB80051FD05462B4B1B6813F4807F06D1FEF7BA
:101AC80049FD401B0228F5D90320B1E7244B1B6FC1
:101AD80013F4407312D0E26802F440729A420DD0B7
:101AE8001F4B1A6F22F440721F4901200860002022
:101AF80008601A671B6F13F0010F13D1E36803F432
:101B08004072B2F5407F1ED0154A936823F4F8134B
:101B1800936013490B6FE268C2F30B0213430B6720
:101B2800002085E7FEF716FD05460D4B1B6F13F0E9
:101B3800020FE3D1FEF70EFD401B41F288339842B5
:101B4800F3D9032074E706498A6822F4F81223F0CF
:101B5800704323F4407313438B60DAE7680047420D
:101B68000038024000700040400E474201282AD148
:101B7800174B9B6813F4000303D0012B25D115489C
:101B88007047134B5B6813F4800F14D0104B5B68DD
:101B980003F03F031048B0FBF3F00D4AD2F884304D
:101BA800C3F3881300FB03F0D2F88430C3F3027345
:101BB800B0FBF3F07047064B5B6803F03F03074840
:101BC800B0FBF3F0E9E7002070470020704700BF42
:101BD800003802400080BB0040787D010024F400FA
:101BE800F8B505460F4616461C462B689B6837EA2B
:101BF80003030CBF01230023B34237D0B4F1FF3FE6
:101C0800F3D0FEF7A7FC069BC01AA04201D2002C15
:101C1800EBD12A68536823F0E00353606B68B3F58F
:101C2800827F0BD0AB6AB3F5005F14D0012385F82F
:101C38005130002385F85030032018E0AB68B3F525
:101C4800004F02D0B3F5806FECD12A68136823F0F7
:101C580040031360E6E72A68136823F4005313600F
:101C68002A68136843F400531360DFE70020F8BDC7
:101C780010B582B0044600920B4600228021FFF77F
:101C8800AFFF034610B9184602B010BD636D43F0AC
:101C9800200363650323F6E700283BD010B504460C
:101CA8000023836290F85130002B2ED0022384F851
:101CB80051302268136823F0400313606368A268F8
:101CC8001343E26813432269134362691343A26909
:101CD80002F400721343E2691343226A1343A16AB0
:101CE80022680B431360638B03F00403616A226864
:101CF8000B4353602268D36923F40063D361002047
:101D08006065012384F8513010BD80F8503001F02F
:101D180059FCCBE7012070472DE9F04182B090F8DB
:101D28005040012C00F0C3801D46174688460446E3
:101D3800012380F85030FEF70DFC064694F8513028
:101D4800DBB2012B09D00220012384F85130002393
:101D580084F8503002B0BDE8F081B8F1000F00F00F
:101D68009880002F00F09780032384F851300023D7
:101D78006365C4F83080A786E786A363A387E387F3
:101D880063642364A368B3F5004F1CD023681A6802
:101D980012F0400F03D11A6842F040021A60E3685B
:101DA800B3F5006F15D063680BB1012F49D1226BD1
:101DB800236812781A73236B01332363E38E013B84
:101DC8009BB2E3863DE02268136843F480431360C6
:101DD800DCE763680BB1012F15D1226B23681288E9
:101DE800DA60236B02332363E38E013B9BB2E38605
:101DF80009E0FEF7AFFB801BA84202D3B5F1FF3F15
:101E08004BD1002D4BD0E38E9BB2002B2CD02368F6
:101E18009A6812F0020FECD0226B1288DA60236BFA
:101E280002332363E38E013B9BB2E386EBE7FEF7C5
:101E380091FB801BA84202D3B5F1FF3F31D1002DA1
:101E480031D0E38E9BB27BB123689A6812F0020FFF
:101E5800EDD0226B12781A73236B01332363E38E60
:101E6800013B9BB2E386ECE7324629462046FFF762
:101E7800FFFE08B120236365A36833B90193236883
:101E8800DA6801929B680193019B636D6BB900202E
:101E98005AE7012058E7012056E7032054E70320BA
:101EA80052E7032050E703204EE701204CE70220C9
:101EB80050E7704730B585B00446026850689368AB
:101EC800C3F3801149B913F0010F06D010F0400F89
:101ED80003D0236C2046984708E013F0020F07D080
:101EE80010F0800F04D0636C2046984705B030BDD1
:101EF800C3F340151DB911B913F4807FF6D010F063
:101F0800200FF3D079B194F85110C9B2032953D0F6
:101F1800616D41F00401616500210091D168009173
:101F280091680091009965B1616D41F001016165A9
:101F38000021029191680291116821F0400111601D
:101F4800029A13F4807F09D0636D43F00803636538
:101F58000023039323689B680393039B636D002B03
:101F6800C4D02268536823F0E0035360012384F847
:101F7800513010F0030F27D02268536823F0030371
:101F88005360E36C4BB1124A1A65E06CFEF75DFED4
:101F980018B1636D43F040036365A36C002BA5D0B3
:101FA8000B4A1A65A06CFEF750FE00289ED0636DA0
:101FB80043F04003636599E700230193D3680193D5
:101FC80093680193019B91E72046FFF772FF8DE725
:101FD800DD1F000808B5806B0023C387C386FFF7A1
:101FE80068FF08BD10B4036A046A24F0010404629F
:101FF800846924F0F00444EA021223F00A030B4334
:10200800826103625DF8044B704710B4036A23F0E1
:10201800100303628469036A24F4704444EA0232B8
:1020280023F0A00343EA0113826103625DF8044BC5
:102038007047836823F07003194341F007018160FA
:1020480070470268D36843F00103D360026893685D
:1020580003F00703062B03D0136843F00103136052
:1020680000207047704770477047704710B50446A6
:1020780003681A6912F0020F11D0DA6812F0020F21
:102088000DD06FF002021A610123037703689B6980
:1020980013F0030F70D0FFF7E6FF002323772368C0
:1020A8001A6912F0040F12D0DA6812F0040F0ED079
:1020B8006FF004021A610223237723689B6913F4E3
:1020C800407F5FD02046FFF7CEFF002323772368A9
:1020D8001A6912F0080F12D0DA6812F0080F0ED041
:1020E8006FF008021A61042323772368DB6913F071
:1020F800030F4ED02046FFF7B6FF0023237723684F
:102108001A6912F0100F12D0DA6812F0100F0ED000
:102118006FF010021A61082323772368DB6913F430
:10212800407F3DD02046FFF79EFF0023237723689A
:102138001A6912F0010F03D0DA6812F0010F36D1D4
:1021480023681A6912F0800F03D0DA6812F0800F42
:1021580034D123681A6912F0400F03D0DA6812F0FC
:10216800400F32D123681A6912F0200F03D0DA68C1
:1021780012F0200F30D110BDFFF774FF2046FFF793
:1021880073FF8AE72046FFF76DFF2046FFF76CFFD5
:102198009BE72046FFF766FF2046FFF765FFACE7A1
:1021A8002046FFF75FFF2046FFF75EFFBDE76FF0B1
:1021B80001021A61204600F0B9FEC1E76FF0800203
:1021C8001A61204600F007F9C3E76FF040021A6170
:1021D8002046FFF74AFFC5E76FF020021A61204644
:1021E80000F0F8F8C7E700000368304A904212D0C0
:1021F800B0F1804F0FD0A2F57C4290420BD002F58F
:102208008062904207D002F58062904203D002F5C6
:102218007842904203D123F070034A681343234A5B
:1022280090422AD0B0F1804F27D0A2F57C4290424C
:1022380023D002F5806290421FD002F5806290425E
:102248001BD002F57842904217D002F570529042A6
:1022580013D002F5806290420FD002F5806290425E
:102268000BD0A2F59832904207D002F580629042D6
:1022780003D002F58062904203D123F44073CA6808
:10228800134323F080034A69134303608B68C362D6
:102298000B688362054B984203D003F5806398422C
:1022A80001D10B69036301234361704700000140BA
:1022B800A8B110B5044690F83D305BB1022384F80C
:1022C8003D30211D2068FFF78FFF012384F83D3042
:1022D800002010BD80F83C3001F0CAF9EEE701207B
:1022E800704710B4846824F47F4442EA03230B4304
:1022F800234383605DF8044B704790F83C30012B12
:1023080066D010B50446012380F83C30022380F8DB
:102318003D300268936823F47F4323F0770393608A
:102328000B68402B4AD013D9602B3DD01ED9702B97
:1023380028D0B3F5005F30D1CB684A688968006857
:10234800FFF7CFFF2268936843F48043936024E04B
:10235800102B06D004D9202B03D0302B01D01CE041
:10236800DBB919462068FFF764FE16E0502B14D13C
:10237800CA6849680068FFF735FE50212068FFF7F2
:1023880058FE0AE0CB684A6889680068FFF7A9FF29
:102398002268936843F077039360012384F83D3003
:1023A800002084F83C0010BDCA6849680068FFF73F
:1023B8002CFE60212068FFF73CFEEEE7CA684968FA
:1023C8000068FFF70FFE40212068FFF732FEE4E7C0
:1023D80002207047704770470268D36823F49073EF
:1023E800D3600268536923F001035361202380F806
:1023F8003A30704790F83930DBB2212B2AD1836804
:10240800B3F5805F16D0036A5A1C02621A78036813
:102418005A60C38C013B9BB2C384EBB90268D36892
:1024280023F08003D3600268D36843F04003D3608D
:1024380000207047036A1B880268C3F308035360CF
:1024480003691BB9036A02330362E2E7036A0133D3
:102458000362DEE702207047002070472DE9F84349
:1024680004460268136923F44053C1680B4313619F
:1024780083680269134342691343C2691A430168B6
:10248800CB6823F4164323F00C031343CB60026894
:10249800536923F4407381690B435361C369B3F5EE
:1024A800004F60D00368B84A934200F0148102F5E7
:1024B8008062934200F00F81FFF78EFA00EB8000F4
:1024C80000EB80006568AD00B0FBF5F5AF4FA7FBEA
:1024D80005356D092E01FFF77FFA00EB800000EB50
:1024E80080006568AD00B0FBF5F9FFF775FA00EB01
:1024F800800000EB80006568AD00B0FBF5F5A7FB38
:1025080005356D094FF0640808FB15952D01323526
:10251800A7FB05356D0905F0F0053544FFF75CFAB2
:1025280000EB800000EB80006668B600B0FBF6F6B2
:10253800FFF752FA00EB800000EB800063689B0015
:10254800B0FBF3F0A7FB0030400908FB10684FEA26
:10255800081808F13208A7FB0837C7F343172368A0
:102568002F449F600DE10368874A93425BD002F5D0
:102578008062934257D0FFF72FFA00EB800000EB00
:10258800800065686D00B0FBF5F5804FA7FB053549
:102598006D092E01FFF720FA00EB800000EB8000A8
:1025A80065686D00B0FBF5F9FFF716FA00EB8000DF
:1025B80000EB800065686D00B0FBF5F5A7FB0535FD
:1025C8006D094FF0640808FB1595ED003235A7FB3F
:1025D80005356D096D0005F4F8753544FFF7FCF90C
:1025E80000EB800000EB800066687600B0FBF6F632
:1025F800FFF7F2F900EB800000EB800063685B00F6
:10260800B0FBF3F3A7FB03235B0908FB13684FEA4E
:10261800C80808F13208A7FB0837C7F34217236830
:102628002F449F60ADE0FFF7E7F900EB800000EB77
:10263800800065686D00B0FBF5F5544FA7FB0535C4
:102648006D092E01FFF7D8F900EB800000EB800040
:1026580065686D00B0FBF5F9FFF7CEF900EB800077
:1026680000EB800065686D00B0FBF5F5A7FB05354C
:102678006D094FF0640808FB1595ED003235A7FB8E
:1026880005356D096D0005F4F8753544FFF7B4F9A3
:1026980000EB800000EB800066687600B0FBF6F681
:1026A800FFF7AAF900EB800000EB800063685B008D
:1026B800B0FBF3F3A7FB03235B0908FB13684FEA9E
:1026C800C80808F13208A7FB0837C7F34217236880
:1026D8002F449F6055E0FFF78FF900EB800000EB77
:1026E80080006568AD00B0FBF5F5284FA7FB053500
:1026F8006D092E01FFF780F900EB800000EB8000E8
:102708006568AD00B0FBF5F9FFF776F900EB8000DE
:1027180000EB80006568AD00B0FBF5F5A7FB05355B
:102728006D094FF0640808FB15952D013235A7FB9C
:1027380005356D0905F0F0053544FFF75DF900EB47
:10274800800000EB80006668B600B0FBF6F6FFF785
:1027580053F900EB800000EB800063689B00B0FB3E
:10276800F3F0A7FB0030400908FB10684FEA08188F
:1027780008F13208A7FB0837C7F3431723682F442B
:102788009F60BDE8F88300BF001001401F85EB5132
:1027980058B310B5044690F839300BB3242384F8A5
:1027A80039302268D36823F40053D3602046FFF7FA
:1027B80055FE2268136923F4904313612268536914
:1027C80023F02A0353612268D36843F40053D3608B
:1027D8000020E063202384F8393084F83A3010BDB3
:1027E80080F8383000F064FFD8E70120704790F88F
:1027F8003A30DBB2202B20D109B312B390F838302D
:10280800012B20D081628285C2850023C3632222E6
:1028180080F83A2080F838300168CA6842F480723B
:10282800CA6001684A6942F001024A610168CA68DF
:1028380042F02002CA601846704702207047012003
:1028480070470120704702207047704708B501683B
:10285800CB6823F04003CB60202380F83930FFF7A2
:10286800F4FF002008BD08B590F83A30DBB2222BFF
:1028780045D18368B3F5805F0ED0036903BB036855
:102888005A68836A591C81621A70C38D013B9BB2D6
:10289800C385F3B1002033E0826A036943B9036852
:1028A8005B68C3F308031380836A02338362ECE72F
:1028B80003685B68DBB21380836A01338362E4E7F1
:1028C80003685B68826A511C816203F07F0313709E
:1028D800DBE70268D36823F02003D3600268D3687B
:1028E80023F48073D3600268536923F001035361B2
:1028F800202380F83A3000F0E5FA002000E00220BA
:1029080008BD704710B5044602681368D16852695B
:1029180013F00F0005D113F0200F02D011F0200F93
:1029280053D1002867D012F0010202D111F4907F30
:1029380061D013F0010F06D011F4807F03D0E06B53
:1029480040F00100E06313F0040F04D01AB1E06B0B
:1029580040F00200E06313F0020F04D01AB1E06BFC
:1029680040F00400E06313F0080F04D01AB1E26BE2
:1029780042F00802E263E26B002A48D013F0200F0D
:1029880002D011F0200F24D123685B6903F04003C3
:10299800E26B12F0080F00D13BB32046FFF71CFD95
:1029A80023685A6912F0400F1BD05A6922F040027E
:1029B8005A61636B8BB11A4A1A65606BFEF745F969
:1029C80028B3606B036D984721E02046FFF74BFF63
:1029D8001DE02046FFF747FFD6E72046FFF791FFA7
:1029E80015E02046FFF78DFF11E02046FFF789FF2D
:1029F8000023E3630BE013F0800F02D011F0800F87
:102A080006D113F0400F02D011F0400F04D110BDD1
:102A18002046FFF7EFFCFAE72046FFF717FFF6E737
:102A28002D2A000808B5806B0023C385C384FFF7EF
:102A380068FF08BDF8B507460E4615461C462E4BDE
:102A480000221A604FF47A71FDF7EAFE70B34FF472
:102A58007A713046FDF7E4FE002832D04FF47A71DF
:102A68002846FDF7DDFE002831D0234B19685B6846
:102A7800CA1AB2F5805F34D91F4A0020D0605B1AA9
:102A8800B3F5805F33D803EB83035A001A4B1A61FE
:102A9800194DEB68002211462046FEF7BFF82B6956
:102AA800002210212046FEF7B9F8F8BD3846FDF798
:102AB80012FF114B1860B0F5FA6FC8D900221A60DE
:102AC800C5E73046FDF707FF0B4B5860C6E72846B9
:102AD800FDF701FF094BA3FB0030C008064B9860C7
:102AE800C3E702EB82025000034AD060C7E7024BFB
:102AF80000221A61CCE700BF400B0020CDCCCCCC23
:102B080008B500231A46B321014800F0BBFB08BDF5
:102B18000800002008B500230122B321014800F075
:102B2800B1FB08BD0800002008B500231A4640F292
:102B38005B11024800F0A6FB08BD00BF7001002031
:102B480008B50123002240F25B11024800F09AFB0D
:102B580008BD00BF7001002008B500231A4640F2E6
:102B68000311024800F08EFB08BD00BF28040020B6
:102B780008B50023012240F20311024800F082FB4D
:102B880008BD00BF2804002008B500231A466A21A2
:102B9800014800F077FB08BD3006002008B5002387
:102BA8001A464FF4A871024800F06CFB08BD00BF3C
:102BB80080080020F0B58BB0002405940694079493
:102BC800089409940094354B1A6B42F080021A63FA
:102BD8001A6B02F080020092009A01941A6B42F07C
:102BE80004021A631A6B02F004020192019A029419
:102BF8001A6B42F001021A631A6B02F00102029288
:102C0800029A03941A6B42F002021A631A6B02F0DA
:102C180002020392039A04941A6B42F008021A63A0
:102C28001B6B03F008030493049B1D4E0122202113
:102C38003046FEF701F91B4D224602212846FEF7D1
:102C4800FBF820230593012706970794089405A904
:102C58003046FEF70DF80226059606970794089465
:102C680005A92846FEF704F84FF400730593069467
:102C78000794A5F5806505A92846FDF7F9FF4FF4E7
:102C8800E053059306960794032308930A230993B0
:102C980005A92846FDF7ECFF0BB0F0BD003802404F
:102CA800000802400004024070B584B00025009579
:102CB8000195029503950F4C0F4B23606560A56045
:102CC80001262661267684F82050E5620B4BA36224
:102CD800E560E66184F8305065612046FDF7DAFC6E
:102CE8000C2300930196029569462046FDF7F6FDF0
:102CF80004B070BD900C0020002201400100000FBC
:102D080070B584B0002500950195029503950F4C88
:102D18000F4B23606560A56001262661267684F83E
:102D28002050E5620B4BA362E560E66184F8305001
:102D380065612046FDF7AEFC0A23009301960295D3
:102D480069462046FDF7CAFD04B070BD480C002056
:102D5800002001400100000F70B584B000250095E7
:102D68000195029503950F4C0F4B23606560A56094
:102D780001262661267684F82050E5620B4BA36273
:102D8800E560E66184F8305065612046FDF782FC15
:102D98000B2300930196029569462046FDF79EFD98
:102DA80004B070BDBC0B0020002101400100000FE1
:102DB80030B583B00024009401940A4D0A4B2B606F
:102DC8002846FDF7BDFE0094019422466946284630
:102DD800FDF7FFFE102269462846FDF7FAFE03B00C
:102DE80030BD00BFD80C00200074004008B50A4868
:102DF8000A4B03604FF40073436000238360C36091
:102E080003614FF4FA5242618361C3610123036293
:102E1800FEF718F808BD00BF2C0D0020003C00404C
:102E280008B50B480B4B03604FF4827343600023D3
:102E38008360C360036143614FF400728261C361C0
:102E48000362436283620A23C362FEF725FF08BD5B
:102E5800640B00200038004008B50848084B0360A0
:102E68004FF4E133436000238360C36003610C22A5
:102E780042618361C361FFF78BFC08BD080C002029
:102E88000050004010B584B00023009301930293D2
:102E980003930A4C0A4A226001226260A360E2603E
:102EA8002361A3612046FFF703FA4FF48053009390
:102EB80069462046FFF721FA04B010BDEC0C00204B
:102EC8000040014008B5184B1B78613B162B0FD802
:102ED800DFE803F0270E0E0E150E0E0E0E0E0E0C6A
:102EE8000E120E0E0E0F180E0E0E2400FFF708FE1F
:102EF80008BDFFF70FFEFBE7FFF716FEF8E7FFF741
:102F08002BFEF5E7084B5B786F2B04D0742BEFD1C1
:102F1800FFF73AFEECE7FFF713FEE9E7FFF728FEB5
:102F2800E6E7FFF73BFEE3E7040C002008B5064B95
:102F3800064A07490748FFF77DFD02220649074868
:102F4800FFF755FC08BD00BFD80C0020900C0020EE
:102F5800BC0B0020480C0020040C0020080C0020AA
:102F6800F0B599B0302200210DEB020000F094FC7E
:102F780000240794089409940A940B9403940494E5
:102F88000594069401941F4B1A6C42F080521A64FF
:102F98001B6C03F080530193019B02941A4B1A682F
:102FA80042F480421A601B6803F480430293029B38
:102FB80003230C934FF480330D9301260F961023AF
:102FC8001093022512954FF4800313930F2714973B
:102FD800902315931695052317930CA8FEF72AFA44
:102FE8000797089409940A940B94214607A8FEF7BA
:102FF80041FC03963C230493059503A8FEF70CFDBA
:1030080019B0F0BD003802400070004008B5FDF767
:103018007BFAFFF7A5FFFFF7CDFDFFF745FEFFF7AA
:10302800C7FEFFF7E3FEFFF7FBFEFFF715FFFFF70D
:1030380067FEFFF791FEFFF725FF00F087F8AF2046
:1030480000F04AF800F0FEF81248FDF74FFB12486E
:10305800FDF74CFB1148FDF749FB114C00212046B8
:10306800FDF780FD10212046FDF77CFD0D48FEF799
:10307800E8FFAF2000F030F802220B490B48FFF7B9
:10308800B6FB00F0DFF8022207490848FFF7AFFB5C
:10309800F9E700BF480C0020BC0B0020900C002072
:1030A800D80C0020EC0C0020040C0020080C002098
:1030B80038B504460D46012202210548FDF7BCFE3D
:1030C8004FF47A73AAB221460248FEF725FE38BDAE
:1030D80000040240640B002030B583B002AC04F851
:1030E800010D0A4D002202212846FDF7A5FE4FF4E6
:1030F8007A73012221460648FEF70EFE01220221BC
:103108002846FDF799FE03B030BD00BF0004024019
:10311800640B002010B582B002AC04F8011DFFF763
:10312800DBFF01212046FFF7C3FF02B010BD00B549
:1031380083B08DF804108DF80520FFF7CDFF02212C
:1031480001A8FFF7B5FF03B05DF804FB08B512212D
:10315800FD20FFF7DFFFA420FFF7BEFFF221B32019
:10316800FFF7D8FF3F21CA20FFF7D4FF0021A22094
:10317800FFF7D0FF0021A120FFF7CCFF1122142177
:10318800A020FFF7D4FF0021B520FFF7C3FF0121DE
:10319800AB20FFF7BFFFFD22A021B420FFF7C7FF38
:1031A8000F21C720FFF7B6FFB920FFF795FFF021E1
:1031B800B120FFF7AFFF20228221D120FFF7B7FF10
:1031C8000D21BB20FFF7A6FF0821B620FFF7A2FFBD
:1031D8000021BE20FFF79EFFA620FFF77DFFA92054
:1031E800FFF77AFFAF20FFF777FF08BD00B583B080
:1031F8008DF807008DF806101520FFF76DFF0121E7
:103208000DF10700FFF754FF01210DF10600FFF74C
:103218004FFF03B05DF804FB00B583B08DF80700DD
:103228008DF806107520FFF757FF01210DF10700F3
:10323800FFF73EFF01210DF10600FFF739FF03B04C
:103248005DF804FB30B583B05B211C20FFF7CEFF8F
:103258003F210020FFF7E0FF5C20FFF73DFF00253E
:103268008DF8075008E001210DF10700FFF720FF56
:1032780001347F2CF7DD01353F2D01DC0024F8E710
:1032880003B030BD2DE9F04383B080468946164629
:10329800934216D011220421A020FFF748FF5B219A
:1032A8001C20FFF7A3FF3F210020FFF7B5FF5C209C
:1032B800FFF712FF00278DF80770FF238DF80630FF
:1032C80015E011221421A020FFF731FFE7E73B4664
:1032D80014E001210DF10700FFF7EAFE0134B5F90A
:1032E8000030C3EB4373DA00A242F2DC01374F45EA
:1032F80028D2002EEBD0A9EB0703013B08EB4305CE
:1033080038F91330002B01DB002409E00024E6E73C
:1033180022460DE001210DF10700FFF7C9FE013437
:10332800072CE3DCB5F90030002EF1D0C4F1070218
:10333800934013F0800FEDD001210DF10600FFF747
:10334800B7FEECE703B0BDE8F083000082B00021CF
:1033580000910B4B5A6C42F480425A645A6C02F446
:1033680080420092009A01911A6C42F080521A64CD
:103378001B6C03F080530193019B02B0704700BFA0
:103388000038024000B58DB00023079308930993D5
:103398000A930B930368344A934208D0334A934202
:1033A80024D0334A934240D00DB05DF804FB00218D
:1033B8000191304B5A6C42F480725A645A6C02F490
:1033C80080720192019A02911A6B42F004021A6308
:1033D8001B6B03F004030293029B0123079303234F
:1033E800089307A92448FDF743FCDDE70021039172
:1033F800204B5A6C42F400725A645A6C02F4007200
:103408000392039A04911A6B42F004021A631B6B2D
:1034180003F004030493049B0223079303230893F4
:1034280007A91548FDF724FCBEE700210591114BBB
:103438005A6C42F480625A645A6C02F480620592B3
:10344800059A06911A6B42F004021A631B6B03F08B
:1034580004030693069B042307930323089307A9F1
:103468000548FDF705FC9FE70020014000210140C9
:1034780000220140003802400008024000B589B02F
:103488000023039304930593069307930268134B51
:103498009A4202D009B05DF804FB0021019103F5BE
:1034A800E2331A6C42F000521A641A6C02F00052AD
:1034B8000192019A02911A6B42F001021A631B6B86
:1034C80003F001030293029B302303930323049325
:1034D80003A90348FDF7CCFBDCE700BF00740040FC
:1034E80000000240F0B58BB00023059306930793C4
:1034F8000893099302682F4B9A4201D00BB0F0BD94
:103508000024019403F5FE331A6C42F400421A6455
:103518001A6C02F400420192019A02941A6B42F06A
:1035280001021A631A6B02F001020292029A0394D2
:103538001A6B42F004021A631A6B02F00402039237
:10354800039A04941A6B42F002021A631B6B03F08D
:1035580002030493049B4FF4004305930225069548
:103568000626099605A91448FDF782FB4FF48063E7
:1035780005930695079408940996104F05A93846AF
:10358800FDF776FB4FF400630593069507940894BE
:103598000523099305A93846FDF76AFB20230593FF
:1035A800069507940894099605A90548FDF760FB58
:1035B800A4E700BF003C00400000024000080240B1
:1035C80000040240F0B589B00023039304930593E7
:1035D800069307930268234B9A4201D009B0F0BDC5
:1035E8000024009403F500331A6C42F480421A64F4
:1035F8001A6C02F480420092009A01941A6B42F00D
:1036080004021A631A6B02F004020192019A0294EE
:103618001A6B42F002021A631B6B03F00203029357
:10362800029B082303930227049703260696052581
:10363800079503A90C48FDF71BFB4FF48843039338
:10364800049705940696079503A90848FDF710FB0B
:10365800224621462420FDF71BFA2420FDF74CFAC8
:10366800BCE700BF003800400008024000040240E8
:1036780002680E4B9A4200D0704700B583B0002113
:10368800019103F578435A6C42F480325A645B6CBA
:1036980003F480330193019B0A461820FDF7F8F9DB
:1036A8001820FDF729FA03B05DF804FB004001403B
:1036B8002DE9F04188B00023039304930593069302
:1036C80007930268254B9A4202D008B0BDE8F08102
:1036D8000024009403F5F4331A6C42F480121A643F
:1036E8001A6C02F480120092009A01941A6B42F04C
:1036F80004021A631A6B02F004020192019A0294FE
:103708001A6B42F008021A631B6B03F0080302935A
:10371800029B4FF4805303934FF00208CDF81080BA
:1037280001270597032606960825079503A90C483F
:10373800FDF79EFA04230393CDF8108005970696AB
:10374800079503A90748FDF793FA22462146352035
:10375800FDF79EF93520FDF7CFF9B6E70050004098
:1037680000080240000C02407047FEE7FEE7FEE753
:10377800FEE770477047704708B5FCF7DFFE08BDE5
:1037880008B50248FEF772FC08BD00BFEC0C00202B
:1037980008B50248FEF78EFB08BD00BF640B002089
:1037A80008B50248FFF7AEF808BD00BF080C0020B6
:1037B8000F49D1F8883043F47003C1F888300D4BB5
:1037C8001A6842F001021A60002098601A6822F014
:1037D800847222F480321A60074A5A601A6822F406
:1037E80080221A60D8604FF000638B60704700BF7A
:1037F80000ED00E00038024010300024DFF834D03B
:10380800002103E00C4B5B58435004310B480C4B30
:1038180042189A42F6D30B4A02E0002342F8043BCE
:10382800094B9A42F9D3FFF7C3FF00F011F8FFF7ED
:10383800EDFB704700000220F0380008000000206F
:10384800240B0020240B0020740D0020FEE700004C
:1038580070B50D4E0D4CA41BA4100025A54209D12E
:103868000B4E0C4C00F020F8A41BA4100025A54218
:1038780005D170BD56F8253098470135EEE756F862
:10388800253098470135F2E7E8380008E83800089D
:10389800E8380008EC38000802440346934200D197
:1038A800704703F8011BF9E7F8B500BFF8BC08BC7E
:1038B8009E467047F8B500BFF8BC08BC9E467047E6
:1038C80000000000000000000102030406070809C8
:0838D8000000000001020304DE
:0838E00018C9FF7F0100000080
:0438E800AD01000826
:0438EC008901000846
:1038F0000100000010000000B4FF0700C000F2FF4C
:103900000F00E000F2FF0F00FC00F2FF0F00FF00CD
:103910008000F4FF0300FF00FF00F000F4FF0F0041
:10392000FF00FF00FC00F4FF1F00FF00FF00FC0091
:10393000F4FF3F00FF00FF00F000F4FF7F000F00E6
:10394000FF008000F4FFFE000F00FC00F4FF010008
:10395000FC000F00F000F4FF0100F8000700C000B9
:10396000F4FF0300F000F2FF0300E000F2FF0700A5
:10397000C000F2FF0700C000F2FF07008000F2FF66
:1039800007008000F2FF07008000F2FF07008000C0
:10399000F2FF07008000F2FF07008000F2FF07003F
:1039A0008000F2FF07008000F2FF07008000F2FFB6
:1039B00007008000F2FF07008000F2FF0700800090
:1039C000F2FF07008000F2FF07008000F2FF07000F
:1039D0008000F2FF07008000F2FF07008000F2FF86
:1039E00007008000F2FF07008000F2FF0700800060
:1039F000F2FF07008000F2FF07008000F2FF0700DF
:103A00008000F2FF07008000F2FF07008000F2FF55
:103A100007008000F2FF07008000F2FF070080002F
:103A2000F2FF07008000F2FF07008000F2FF0700AE
:103A30008000F2FF07008000F2FF07008000F2FF25
:103A400007008000F2FF07008000F2FF07008000FF
:103A5000F2FF07008000F2FF070080009CFF0000DB
:103A6000A9FF3F00F000F3FF0100C1000F00F3FFCA
:103A700006000100FFFFE000F4FF18000100FFFF57
:103A80001000F4FF6000030080000C00F4FF8000D1
:103A9000030080000200F5FF0100FFFF030080002B
:103AA0000100F5FF0600FFFF03008000FFFFC000DC
:103AB000F6FF0800FFFF03008000FFFF2000F6FF75
:103AC0000800FFFF0700C000FFFF2000F6FF100006
:103AD000FFFF0700C000FFFF1000F6FF2000FFFF00
:103AE0000700C000FFFF0800F6FF4000FFFF0700CF
:103AF000C000FFFF0400F6FF4000FFFF0700C0000A
:103B0000FFFF0400F6FF8000FFFF0F00E000FFFF53
:103B10000200F6FF8000FFFF0F00E000FFFF020041
:103B2000F7FF0100FEFF0F00E000FFFF0100F7FFBD
:103B30000100FEFF0F00E000FFFF0100F7FF0200A1
:103B4000FEFF0F00E000FFFF0100F7FF0200FEFF95
:103B50001F00F000FEFF8000F8FF0200FEFF1F00C4
:103B6000F000FEFF8000F8FF0200FEFF1F00F000E3
:103B7000FEFF8000F8FF0400FEFF1F00F000FEFFC4
:103B80004000F8FF0400FEFF1F00F000FEFF4000B1
:103B9000F8FF0400FEFF3F00F800FEFF4000F8FFC2
:103BA0000400FEFF3F00F800FEFF4000F8FF0400A5
:103BB000FEFF3F00F800FEFF4000F8FF0400FEFF9C
:103BC00020000800FEFF4000F8FF0400FEFF200078
:103BD0000800FEFF4000F8FF0400FEFF2000100078
:103BE000FEFF4000F8FF0400FEFF10001000FEFF83
:103BF0004000F8FF0400FEFF10001000FEFF400030
:103C0000F8FF0400FEFF10001000FEFF8000F8FF28
:103C10000200FEFF10001000FEFF8000F8FF02000F
:103C2000FEFF10002000FEFF8000F8FF0200FEFFF4
:103C300008002000FFFF0100F7FF0100FEFF080061
:103C40002000FFFF0100F7FF0100FEFF0800200039
:103C5000FFFF0100F6FF8000FFFF08002000FFFFCC
:103C60000200F6FF8000FFFF08002000FFFF0200B7
:103C7000F6FF4000FFFF04004000FFFF0400F6FFD6
:103C80004000FFFF04004000FFFF0400F6FF20009B
:103C9000FFFF04004000FFFF0800F6FF1000FFFFD9
:103CA00004004000FFFF1000F6FF0800FFFF0400C3
:103CB0004000FFFF2000F6FF0800FFFF0200800029
:103CC000FFFF2000F6FF0600FFFF02008000FFFF5D
:103CD000C000F6FF0100FFFF020080000100F4FFBA
:103CE0008000020080000200F4FF600002008000FB
:103CF0000C00F4FF18000100FFFF3000F4FF060085
:103D00000100FFFFC000F4FF0100E1000F00F2FF1F
:103D10001F00F000A9FF000079FF0F00FC00F2FF78
:103D2000700003008000F4FF03008000FFFF7000BC
:103D3000F4FF0C00FEFF0C00F4FF3000FEFF030058
:103D4000F4FF4000FDFF8000F5FF8000FDFF400014
:103D5000F6FF0300FCFF3000F6FF0400FCFF080044
:103D6000F6FF0400FCFF0800F6FF0800FCFF04005B
:103D7000F6FF1000FCFF0200F6FF2000FCFF010030
:103D8000F6FF2000FCFF0100F6FF4000FBFF800073
:103D9000F7FF8000FBFF8000F7FF8000FBFF400083
:103DA000F7FF8000FBFF4000F8FF0100FAFF200052
:103DB000F8FF0100FAFF2000F8FF0100FAFF2000E1
:103DC000F8FF0100FEFF0300E000FEFF2000F8FF07
:103DD0000200FEFF7F009F00FEFF1000F8FF0200C0
:103DE000FFFF0F00FF008000FC00FFFF1000F8FF46
:103DF00002000100FF00FF0080000300E00010004F
:103E0000F8FF02003F00FF00FF008000FFFF1F00DF
:103E10001000F8FF0300FF00FF00FF008000FEFF1E
:103E2000F000F8FF02003F00FF00FF008000FFFFEE
:103E30001F001000F8FF02000100FF00FF008000DB
:103E40000300E0001000F8FF0200FFFF0F00FF007A
:103E500080007C00FFFF1000F8FF0200FEFF7F00E3
:103E60008F008000FFFF1000F8FF0200FEFF03003C
:103E7000F000FEFF2000F8FF0100FAFF2000F8FF2D
:103E80000100FAFF2000F8FF0100FAFF2000F7FF11
:103E90008000FBFF4000F7FF8000FBFF4000F7FFC2
:103EA0004000FBFF8000F7FF4000FBFF8000F7FFB2
:103EB0002000FCFF0100F6FF2000FCFF0100F6FFE0
:103EC0001000FCFF0200F6FF0800FCFF0400F6FFF4
:103ED0000400FCFF0800F6FF0400FCFF0800F6FFEA
:103EE0000300FCFF3000F5FF8000FDFF4000F5FF00
:103EF0004000FDFF8000F5FF3000FEFF0300F4FFEF
:103F00000C00FEFF0C00F4FF0300FEFF3000F3FF87
:103F1000F0000100C000F3FF0F00FE00C9FF000029
:103F200069FF0400F1FF0E00F1FF1500F1FF24000E
:103F30008000F2FF44004000F2FF44004000F2FF26
:103F400084002000F3FF010004001000F3FF0200D2
:103F500004000800F3FF040004000400F3FF08005D
:103F60000400F1FF0400F1FF0400F1FF0400F1FF81
:103F70000400F1FF0400F1FF0400F1FF0400F1FF71
:103F80000400F1FF0400F1FF0400F1FF0400F1FF61
:103F90000400F1FF0400F1FF0400F1FF0400F1FF51
:103FA0000400F1FF0400F1FF0400F1FF0400F1FF41
:103FB0000400F1FF0400F1FF0400F1FF0400F1FF31
:103FC0000400F1FF0400F1FF0400F1FF0400F1FF21
:103FD0000400F1FF0400F1FF0400F1FF0400F1FF11
:103FE0000400F1FF0400F1FF0400F1FF0400F1FF01
:103FF000040078FF1BFFC000F2FF0100E000F2FFA9
:104000000300E000F2FF0F00C000F2FF1F0080007D
:10401000FCFF01008000F8FF3F00FBFF0300E00011
:10402000F8FF7C00FBFF0100F000F8FF7800FAFFCA
:10403000F800F8FFF000FAFF3C00F8FFE000FAFF9C
:104040001C00F8FFE000FAFF1E00F8FFE000FAFF96
:104050000E00F9FF0100E000FAFF0F00F9FF010078
:10406000E000FAFF0700F9FF0100C000FAFF0700B7
:10407000F9FF0100C000FAFF0700F9FF0100C000CE
:10408000FEFF0800FDFF0700F9FF0100C000FEFF72
:104090001C00FDFF0700F9FF0100E000FEFF1E000D
:1040A000FDFF0700F8FFE0000400FFFF1E00FDFF1A
:1040B0000700F8FFE0000E00FFFF3F00FDFF0F00CC
:1040C000F8FFF0000E00FFFF3F00FDFF0F00F8FFBC
:1040D00070000600FFFF3F008000010080000E001E
:1040E000F8FF7800FEFF7B0080000300C0000E0098
:1040F000F8FF3C00FEFFFB00C0000100C0001E00F6
:10410000F8FF1E00FEFFF100E000FEFF1C00F8FFBC
:104110000F0080000300E000E000FEFF3C00F8FF1D
:104120000700E0000F00E000F000FEFF3C00F8FF99
:104130000300FF00FF00C0007C00FEFFF800F7FF57
:10414000FF00FF00FFFF3F0080000300F800F7FFC3
:104150003F00FC00FFFF1F00FF00FF00E000F4FF36
:104160000700FF00FF00C000F3FFFF00FF00EBFEB1
:10417000E9FF7E00F2FF0300FF008000F3FF0F0065
:10418000EF00E000F3FF3E00FFFFF000F3FF7800D8
:10419000FFFF7000F4FF0100F000FFFF3800F4FFA4
:1041A0000300F800FFFF3800F4FF0300F800FFFFF2
:1041B0001800F4FF0300EC00FFFF1800F4FF0300F9
:1041C000FE003F001800F4FF0700FE007F0098008B
:1041D000F4FF0700FC00FF009800F4FF0E007C00D5
:1041E000FF009800F4FF0E007C00FF00B800F4FF11
:1041F0000F007C00FD00B000F4FF1B00FC007F00FE
:104200007000F4FF3800FF00FE007000F4FF38007B
:104210001F00FC006000F4FF7000FFFFFC00E000E6
:10422000F4FF7000FEFFE000F4FF6000FEFFC0003E
:10423000F4FFE000FFFF0100C000F4FFE000FFFF1B
:104240000100C000F4FFC000FFFF01008000F4FF88
:10425000C000010083008000F4FFC0000100B30033
:104260008000F4FFC0000100B300FFFF0100E00088
:10427000F6FFC0000300B300FFFF0300F000F6FFED
:10428000C00003003700FFFF07003000F6FFC0004A
:1042900003007600FFFF06003000F6FFC0000300B9
:1042A0006600FFFF0E003000F6FFC000030066004E
:1042B000FFFF0C003000F6FFC0000700E700FE0023
:1042C0001C003000F6FFC0000600C700FF00B80069
:1042D0007000F6FFC0000700C7000700F000E00014
:1042E000F6FFC000070086000100E100C000F6FFF5
:1042F000C0000F0086000100C3008000F6FFC00070
:104300003F0080007F0087008000F6FFC0007D0036
:10431000C000FF00CE00F5FFC0007200E100E30026
:10432000CF00C000F6FFE0007F006000FFFFE70065
:10433000C000F6FF60007F00E000FFFF7000C000DB
:10434000F6FF70000F00C000FFFF3600C000F6FF50
:1043500070000C00FEFF3700C000F6FF3800FDFFC4
:1043600033008000F6FF3C00FDFF3100C000F6FF87
:104370000F00FDFF3F00C000F6FF07008000FEFFBA
:104380003F00C000F6FF0F00C000FEFF6000F6FF18
:1043900007009F00F800FEFFE000F6FF0700DB00CB
:1043A000FF00FFFF0300C000F6FF0600FF001F0034
:1043B000EE000700C000F6FF0700FE000300EF005C
:1043C000FF00F5FF03006E000C00FF00FC00F5FF8E
:1043D00003001C001E00D800E000F5FF0100B8003B
:1043E0001F00D800F4FF0100F0001B00B000F3FF35
:1043F000E0000D003000F2FF0E007000F2FF06003A
:104400006000F2FF0700E000F2FF0300E000E8FFB9
:044410000024F40090
:0400000508003805B2
:00000001FF
